:100000000C9412010C942F010C942F010C940C04ED
:100010000C942F010C942F010C942F010C942F01A0
:100020000C942F010C942F010C9439090C94740931
:100030000C942F010C942F010C942F010C942F0180
:100040000C942F010C942F010C942F010C942F0170
:100050000C942F010C942F010C942F010C942F0160
:100060000C942F010C942F010C942F010C942F0150
:100070000C942F010C942F010C942F010C942F0140
:100080000C942F010C942F010C942F010C942F0130
:100090000C942F010C942F010C942F010C942F0120
:1000A0000C942F010C942F010C942F01CD08CA0839
:1000B000C708C408C108BE08BB08B808B508B2081C
:1000C000AF08AC08A908A608A308A0089D089A08CC
:1000D0009708940891088E088B088808850882087C
:1000E0007F087C0879087608730870086D086A082C
:1000F0006708640861085E085B08580855085208DC
:100100004F084C0849084608430840083D083A088B
:100110003708340831082E082B082808250822083B
:100120001F081C0819081608130810080D08084AAB
:10013000D73B3BCE016E84BCBFFDC12F3D6C7431FB
:100140009ABD56833DDA3D00C77F11BED9E4BB4C52
:100150003E916BAAAABE000000803F0A00206465A1
:100160006C2079203A20002064656C5F78203A206A
:100170000000010000A5011200020000B7014300C9
:10018000030000FA010401030904FE01120203093D
:1001900004120206030309041A02080001C1120135
:1001A00080360181361201000202000010C0167A6A
:1001B0000400010102030109024300020100C032F0
:1001C00009040000010202010005240010010524B9
:1001D000010101042402060524060001070582032B
:1001E00010004009040100020A0000000705030294
:1001F00040000007058402400000040309041203C4
:100200004A002E0020004600690065006E0065006F
:10021000000006034D0032000000080334003100E6
:100220003000000011241FBECFEFDAE0DEBFCDBFEB
:1002300012E0A0E0B1E0E0EAF8E202C005900D9221
:10024000AC31B107D9F712E0ACE1B2E001C01D92C8
:10025000A036B107E1F70E9431010C944E140C94C2
:1002600000003F924F925F926F927F928F929F9287
:10027000AF92BF92CF92DF92EF92FF920F931F93B4
:10028000CF93DF930E9405070E941E078823E1F3A6
:100290000E94780390E4392E0E946E03882311F0A7
:1002A0000E9471030E941E078823B1F38BE392E042
:1002B0000E94B50580933A026E9A9EB193259EB92D
:1002C000882351F38BE3482E82E0582EE2010F2E53
:1002D000F0E06F2EF0E07F2EF0E08F2EF0E09F2E0A
:1002E000F02D6401530100E010E06881798183E022
:1002F0006F3F7807E0F40F5F1F4F80E090E00E94AF
:10030000490F9B01AC01C601B5010E948E0D5B0136
:100310006C016A817B8180E090E00E94490F9B0123
:10032000AC01C401B3010E948E0D3B014C01269625
:1003300092E0C335D907C9F6009338021093390209
:10034000B801882777FD8095982F0E94970E7B0132
:100350008C01C601B501A80197010E94BB0D5B018C
:100360006C0160931C0270931D0280931E02909397
:100370001F02C401B301A80197010E94BB0D7B01BC
:100380008C0160932002709321028093220290934B
:10039000230280910B01882309F4D2C082E390E00C
:1003A0000E94320382E390E00E944C036E9A76989A
:1003B00081E090E00E941F036E9A769A80E090E0C0
:1003C0000E94320380E090E00E944C0310920B01E7
:1003D00080911C0290911D02A0911E02B0911F02FB
:1003E0008093240290932502A0932602B0932702C3
:1003F0008091200290912102A0912202B0912302CB
:100400008093280290932902A0932A02B0932B0292
:10041000CE0148970E94B50580933A02882309F4DB
:100420006AC0609020027090210280902202909019
:100430002302A0901C02B0901D02C0901E02D0901A
:100440001F020091380210913902F201608171811E
:10045000F3E06F3F7F07E8F40F5F1F4F80E090E00D
:100460000E94490F9B01AC01C601B5010E948E0D8F
:100470005B016C01F2016281738180E090E00E9477
:10048000490F9B01AC01C401B3010E948E0D3B01D9
:100490004C0186E090E0480E591E93E5491692E023
:1004A000590699F60093380210933902B80188274B
:1004B00077FD8095982F0E94970E7B018C01C601D5
:1004C000B501A80197010E94BB0D60931C027093B7
:1004D0001D0280931E0290931F02C401B301A80164
:1004E00097010E94BB0D60932002709321028093BC
:1004F000220290932302A0901C02B0901D02C09093
:100500001E02D0901F02C601B50120912402309135
:10051000250240912602509127020E945D0D6093B2
:100520002C0270932D0280932E0290932F02E09064
:100530002002F0902102009122021091230216C0A5
:100540006A9A729AC601B50120912402309125025F
:1005500040912602509127020E945D0D60932C026B
:1005600070932D0280932E0290932F02C801B70141
:10057000209128023091290240912A0250912B02A9
:100580000E945D0D609330027093310280933202BD
:1005900090933302A0922402B0922502C0922602C8
:1005A000D0922702E0922802F092290200932A02B8
:1005B00010932B02609130027091310280913202CF
:1005C0009091330220912C0230912D0240912E0205
:1005D00050912F020E94BB0D0E949D126093340225
:1005E00070933502809336029093370287E691E04C
:1005F0000E94DF0A60912C0270912D0280912E02E0
:1006000090912F020E94E50BDC01CB010E94820B2E
:100610008DE591E00E94DF0A609130027091310215
:1006200080913202909133020E94E50BDC01CB01F4
:100630000E94820B8BE591E00E94DF0A2DCE40E004
:1006400050E060E971E00AC020E137E2FB01319738
:10065000F1F721503040D1F74F5F5F4F48175907EE
:100660009CF3089597FF06C022273327281B390BD8
:10067000469802C0469A9C01B901882777FD80956B
:10068000982F2FEF3FEF40E050E00E94B71170939A
:10069000890060938800089597FF06C022273327BA
:1006A000281B390B479802C0479A9C01B90188273B
:1006B00077FD8095982F2FEF3FEF40E050E00E94AC
:1006C000B71170938B0060938A000895909359023C
:1006D0008093580281E080935702089580915702D9
:1006E00008951092570280915802909159020895EE
:1006F00080E8809361001092610085BF85BF0E94F1
:100700004206882319F06A9A729801C06E9A769808
:10071000809181008B7F80938100809181008D7F0B
:1007200080938100809181008160809381008FEFB0
:100730009FEF909387008093860080918100806175
:1007400080938100809181008860809381008091F6
:100750008000826080938000809180008E7F8093F3
:100760008000259A8091800080688093800080912D
:1007700080008F7B80938000269A80918000806229
:1007800080938000809180008F7E80938000809194
:100790008000877F80938000809180008B7F809392
:1007A0008000109289001092880010928B001092A5
:1007B0008A003E9A3F9A4698479808959C01462F92
:1007C000862FB9010E94CA040895CF93DF93EC01EC
:1007D00080915A0290915B02849729F084E2BE01D5
:1007E00044E20E94CA0480915A0290915B0285976C
:1007F00029F085E2BE0145E20E94CA0480915A02B6
:1008000090915B02869729F086E2BE0146E20E9443
:10081000CA04DF91CF9108951F920F920FB60F92E5
:1008200011240F931F932F933F934F935F936F93D5
:100830007F938F939F93AF93BF93EF93FF93DF9338
:10084000CF930F92CDB7DEB78E010F5F1F4FC80158
:1008500060915C020E947B04C8010E9466030F90B5
:10086000CF91DF91FF91EF91BF91AF919F918F91C8
:100870007F916F915F914F913F912F911F910F91B8
:100880000F900FBE0F901F901895CF92DF92EF92AE
:10089000FF920F931F93C82E192FD62E072F7A0180
:1008A0000E946A04C0925E0210935F02D0925A02C4
:1008B00000935B02E0925C02F0925D028C2D6D2D44
:1008C0004E2D0E9417051F910F91FF90EF90DF9022
:1008D000CF900895589A599A5A9A8CE08093B8000C
:1008E000E9E6F0E080818062808380818F7E808372
:1008F000EA9A789408959C0184EA8093BC008091E0
:10090000BC0087FFFCCF81E58093BB0084E8809327
:10091000BC008091BC0087FFFCCF8091B900887F2C
:10092000883491F084EC8093BC008091BC0087FFF8
:10093000FCCF8091BB00861739F4A0E0B0E070E0F6
:100940006150704094EC12C084E98093BC0080E058
:1009500008959093BC008091BC0087FFFCCF8091EC
:10096000BB00F901EA0FFB1F80831196A617B7079A
:1009700084F384E88093BC008091BC0087FFFCCFA7
:100980008091BB00A20FB31F8C9384E98093BC00BD
:1009900081E00895982FF89484EA8093BC008091B8
:1009A000BC0087FFFCCF80E58093BB0084E8809388
:1009B000BC008091BC0087FFFCCF8091B900887F8C
:1009C000803231F484E98093BC00789480E008950B
:1009D00083E08093BB0084E88093BC008091BC00DE
:1009E00087FFFCCF9093BB0084E88093BC0080918C
:1009F000BC0087FFFCCF20E030E050E094E80EC060
:100A0000FB01E20FF31F80818093BB009093BC0039
:100A10008091BC0087FFFCCF2F5F3F4F2417350725
:100A20007CF384E98093BC00789481E00895FF9280
:100A30000F931F93182F062FF42E0E946A0484EA46
:100A40008093BC008091BC0087FFFCCF80E5809341
:100A5000BB0084E88093BC008091BC0087FFFCCF82
:100A60008091B900887F803229F484E98093BC00AA
:100A700080E029C081E08093BB0084E88093BC00C3
:100A80008091BC0087FFFCCF1093BB0084E880936B
:100A9000BC008091BC0087FFFCCF0093BB0084E8C2
:100AA0008093BC008091BC0087FFFCCFF092BB001C
:100AB00084E88093BC008091BC0087FFFCCF84E970
:100AC0008093BC0081E01F910F91FF90089520E07A
:100AD00030E08091BC0087FD06C02F5F3F4F83E070
:100AE000293E3807B1F780E0285E334009F081E005
:100AF00008958093BB0084E88093BC000E94670542
:100B0000882319F08091B900887F08951F93182FCA
:100B100084EA8093BC000E946705882369F0110F66
:100B2000812F8F5F0E947905883411F081E004C025
:100B300084E98093BC0080E01F9108951F93182FD3
:100B400084EA8093BC000E946705882361F0812FAE
:100B5000880F0E947905803211F081E004C084E999
:100B60008093BC0080E01F9108950F931F93DF9343
:100B7000CF93CDB7DEB760970FB6F894DEBF0FBE48
:100B8000CDBF182F092F88E50E949E05882309F400
:100B900069C086E30E947905882309F463C084E96B
:100BA0008093BC0085E88A95F1F788E50E94860568
:100BB000882309F457C0FE01319680E1DF011D92C0
:100BC0008A95E9F794EC9E01205F3F4F9093BC001B
:100BD0008091BC0087FFFCCF8091BB008193E2171E
:100BE000F307A1F784E88093BC008091BC0087FFE5
:100BF000FCCF8091BB00888B84E98093BC00DE0130
:100C00001296212F302FC901FC01BE01625F7F4F78
:100C100012962C91129730E0C9018073907054E0C5
:100C2000880F991F5A95E1F74C91840F911D91837C
:100C30008083C901807C9070880F991F880F991F4D
:100C400011964C911197840F911D938382832F707D
:100C500030703583248313963696A617B707C1F6EE
:100C600081E001C080E060960FB6F894DEBF0FBE51
:100C7000CDBFCF91DF911F910F91089584E98093AB
:100C8000BC0008951F93CF93DF930E946A0488E508
:100C90000E949E05882309F4B3C080E30E94790571
:100CA000882309F4ADC081E00E947905882309F406
:100CB000A7C084E98093BC0080E49CE90197F1F728
:100CC00088E50E949E05882309F49AC080E00E946E
:100CD0007905882309F494C080E00E94790588236F
:100CE00009F48EC080E00E947905882309F488C049
:100CF00080E00E947905882309F482C080E00E9488
:100D00007905882309F47CC080E00E947905882356
:100D100009F476C080E00E947905882309F470C048
:100D200080E90E947905882309F46AC014E91093C8
:100D3000BC00C0E4DCE9CE010197F1F788E50E9430
:100D40009E05882309F45CC087E00E94790588230A
:100D500009F456C080E00E947905882309F450C048
:100D600081E40E947905882309F44AC01093BC00ED
:100D7000CE010197F1F788E50E949E05882309F4CA
:100D80003FC08AE10E947905882309F439C080E4D4
:100D90000E9479058823A1F180E00E9479058823CB
:100DA00079F11093BC00CE010197F1F788E50E941C
:100DB0009E05882329F183E30E947905882301F1A8
:100DC00083E00E9479058823D9F01093BC00CE01FE
:100DD0000197F1F788E50E949E05882389F080E35A
:100DE0000E947905882361F088E00E9479058823B4
:100DF00039F01093BC00CE010197F1F781E001C0FA
:100E000080E0DF91CF911F91089581E08093D7001A
:100E100080EA8093D80082E189BD09B400FEFDCF4D
:100E200080E98093D8001092E00010925302109253
:100E300054028CE08093E2007894089580915302EC
:100E400008952FB7F89480915302882339F083E0F6
:100E50008093E9008091E80085FD03C02FBF9FEFDC
:100E60000AC09091F1008091E80085FD03C08BE6F7
:100E70008093E8002FBF892F08959FB7F894809141
:100E80005302882329F083E08093E9008091F200E7
:100E90009FBF089580915302882371F09FB7F89403
:100EA00083E08093E9002BE602C02093E800809164
:100EB000E80085FDFACF9FBF0895482F8091530227
:100EC0008823D9F12FB7F89484E08093E9008091CA
:100ED0005602882341F08091E80085FD02C02FBFB3
:100EE00012C0109256029091E400975E34E0809117
:100EF000E80085FD13C02FBF8091E400891729F415
:100F000081E0809356028FEF0895809153028823E9
:100F1000A1F02FB7F8943093E900E9CF4093F100A6
:100F20008091E80085FD03C08AE38093E80085E0B6
:100F3000809355022FBF80E008958FEF0895282FEA
:100F400080915302882351F09FB7F89484E08093F6
:100F5000E9008091E80085FD03C09FBF8FEF0895F1
:100F60002093F1008091E80085FD03C08AE380931F
:100F7000E80085E0809355029FBF80E00895CF93FD
:100F8000DF93EC0180915302882309F41CC13FB721
:100F9000F89484E08093E90080915602882309F454
:100FA00007C18091E80085FD02C03FBF0CC11092CF
:100FB0005602FEC09091E400975E8091E80085FDA6
:100FC00013C03FBF8091E400891721F481E0809332
:100FD0005602F9C080915302882309F4F4C03FB748
:100FE000F8945093E900E9CF8091F2002A2F281B52
:100FF000822F90E06817790708F4262F822F90E05F
:101000008134910508F0C6C08A5A9F4FFC01EE0F4B
:10101000FF1F0590F491E02D099489918093F100D0
:1010200089918093F10089918093F1008991809357
:10103000F10089918093F10089918093F100899169
:101040008093F10089918093F10089918093F10060
:1010500089918093F10089918093F1008991809327
:10106000F10089918093F10089918093F100899139
:101070008093F10089918093F10089918093F10030
:1010800089918093F10089918093F10089918093F7
:10109000F10089918093F10089918093F100899109
:1010A0008093F10089918093F10089918093F10000
:1010B00089918093F10089918093F10089918093C7
:1010C000F10089918093F10089918093F1008991D9
:1010D0008093F10089918093F10089918093F100D0
:1010E00089918093F10089918093F1008991809397
:1010F000F10089918093F10089918093F1008991A9
:101100008093F10089918093F10089918093F1009F
:1011100089918093F10089918093F1008991809366
:10112000F10089918093F10089918093F100899178
:101130008093F10089918093F10089918093F1006F
:1011400089918093F10089918093F1008991809336
:10115000F10089918093F10089918093F100899148
:101160008093F10089918093F10089918093F1003F
:1011700089918093F10089918093F1008991809306
:10118000F10089918093F10089918093F100899118
:101190008093F10089918093F1008091E80085FDB2
:1011A00002C0B093E800621B71094093550204C06D
:1011B00054E0A0E4BAE345E06115710509F0FACE08
:1011C0003FBF80E001C08FEFDF91CF9108959FB7BF
:1011D000F89480915502882341F084E08093E900DF
:1011E0008AE38093E800109255029FBF08956091B2
:1011F0000C0170910D0180910E0190910F010895E5
:10120000809110010895809111010895809112013B
:101210000895809154020895382F9FB7F8948091D3
:101220005302882339F022E02093E9008091E800FE
:1012300085FD03C09FBF8FEF089581EA8093F10081
:1012400080E28093F1001092F1001092F100109270
:10125000F1001092F1002093F1001092F100309310
:10126000F1001092F1008AE38093E8009FBF80E0D4
:1012700008951F920F920FB60F9211248F939F9390
:101280008091E1001092E100982F83FF11C010922D
:10129000E90081E08093EB001092EC0082E1809302
:1012A000ED0088E08093F0001092530210925402F7
:1012B00092FF13C080915302882379F080915502E8
:1012C000882359F0815080935502882331F484E0BB
:1012D0008093E9008AE38093E8009F918F910F90BB
:1012E0000FBE0F901F9018951F920F920FB60F927E
:1012F00011240F931F932F933F934F935F936F93FB
:101300007F938F939F93AF93BF93EF93FF9310922D
:10131000E9008091E80083FF3CC14091F1003091E9
:10132000F1008091F100682F70E02091F100922F80
:1013300080E0682B792B8091F100A82FB0E02091FC
:10134000F100922F80E0A82BB92B1091F1000091B1
:10135000F10082EF8093E800363009F05AC028E7A8
:1013600031E0A90145505040F9013797859194919A
:101370008617970701F5FA01859194918A179B07C3
:10138000D1F49A012E5F3F4FF901659174912E5F60
:101390003F4FF9014491212F30E0902F80E0282B1E
:1013A000392B2F3F310519F010F02FEF30E02417C3
:1013B00058F4422F09C0295F3F4F495F5F4FF1E06A
:1013C000223A3F0789F6E5C05EEF8091E800282FBA
:1013D00030E0C90185709070892BB9F322FDDCC023
:1013E000342F413108F030E1232FCB0106C0FC013E
:1013F0000196E491E093F10021502223C1F7630F9D
:10140000711D431B5093E8004423F9F63031E9F293
:10141000C3C0353061F48EEF8093E8008091E8001E
:1014200080FFFCCF862F80688093E300B5C0393001
:1014300051F5442309F0ADC0609353021092540259
:10144000109255028EEF8093E8008BE991E021E045
:101450002093E900FC010196E491E093EB00EE2378
:1014600069F0AC014F5F5F4FFC0184918093EC0009
:10147000CA010196FA0134913093ED002F5F2530B7
:1014800039F78EE181C0383061F4403809F081C00D
:101490008091E80080FFFCCF809153028093F1009F
:1014A00050C0313289F4413A09F073C08091E800AC
:1014B00080FFFCCFECE0F1E081918093F10081E0CE
:1014C000E331F807C9F73DC03032A1F4413209F0E9
:1014D00060C08091E80082FFFCCFECE0F1E08091F9
:1014E000F100819381E0E331F807C9F78BEF809336
:1014F000E80027C0323251F4413209F04AC060930B
:1015000054028091E80080FFFCCF1BC03323E9F434
:101510008091E80080FFFCCF423811F080E00DC0E0
:10152000A093E9008091EB0090E025E096958795E7
:101530002A95E1F781701092E9008093F1001092F2
:10154000F1008EEF8093E80027C0313011F0333086
:1015500001F54230F1F4672BE1F42A2F2F77822F27
:1015600081508430B0F48EEF8093E8002093E9003E
:10157000333079F089E18093EB0081E090E002C0A4
:10158000880F991F2A95E2F78093EA001092EA00EB
:1015900003C081E28093EB00FF91EF91BF91AF9187
:1015A0009F918F917F916F915F914F913F912F917B
:1015B0001F910F910F900FBE0F901F9018951F93C2
:1015C000CF93DF93EC01FE0121961491112349F092
:1015D0001A3019F48DE00E945D07812F0E945D078B
:1015E000F2CFDF91CF911F910895982F8A3010F09C
:1015F00087E301C080E3890F0E945D0708951F9370
:10160000182F82958F700E94F50A812F8F700E948B
:10161000F50A1F9108951F93182F892F0E94FF0A22
:10162000812F0E94FF0A1F9108950E94FF0A0895CA
:10163000EF92FF920F931F93DF93CF93CDB7DEB757
:101640002A970FB6F894DEBF0FBECDBF8E010F5F95
:101650001F4F2AE0F80111922A95E9F7A8012AE024
:1016600030E00E9462123BE0E32EF12CEC0EFD1EF6
:10167000F80181918F010E945D070E151F05C1F7CA
:101680002A960FB6F894DEBF0FBECDBFCF91DF9183
:101690001F910F91FF90EF900895EF92FF920F939B
:1016A0001F93DF93CF93CDB7DEB72B970FB6F89488
:1016B000DEBF0FBECDBF8E010F5F1F4F2BE0F801C5
:1016C00011922A95E9F7A8012AE030E00E942E1233
:1016D0004CE0E42EF12CEC0EFD1EF80181918F01FF
:1016E0000E945D070E151F05C1F72B960FB6F894E3
:1016F000DEBF0FBECDBFCF91DF911F910F91FF9045
:10170000EF900895EF92FF920F931F93DF93CF9383
:1017100000D000D00F92CDB7DEB78E010F5F1F4F04
:1017200025E0F80111922A95E9F7B8014AE050E066
:101730000E94871256E0E52EF12CEC0EFD1EF801FA
:1017400081918F010E945D070E151F05C1F70F9053
:101750000F900F900F900F90CF91DF911F910F91ED
:10176000FF90EF900895EF92FF920F931F93DF93F6
:10177000CF9300D000D000D0CDB7DEB78E010F5F81
:101780001F4F26E0F80111922A95E9F7B8014AE0C7
:1017900050E00E940D1267E0E62EF12CEC0EFD1ECB
:1017A000F80181918F010E945D070E151F05C1F799
:1017B00026960FB6F894DEBF0FBECDBFCF91DF9156
:1017C0001F910F91FF90EF900895EF92FF920F936A
:1017D0001F937B018C0120E030E040E05FE40E9439
:1017E000670E88238CF0C801B70120E030E040E0AC
:1017F0005FE40E945D0D0E94F50E9B01AC0120503C
:1018000030404040504806C0C801B7010E94F50E64
:101810009B01AC01B901CA011F910F91FF90EF909C
:101820000895A0E0B0E0E7E1FCE00C94D611DC0103
:101830002B01FA019C91923008F439C1EB018881A7
:10184000823008F433C1943069F4843009F02FC138
:1018500011969C9111978981981709F428C1A3E1E9
:10186000B1E025C1843009F421C18230A9F492305D
:1018700009F01DC19A01AD0188E0EA010990AE01AD
:10188000E90109929E018150C1F7E2018981119617
:101890009C918923818308C1923009F407C1129673
:1018A0002D903C901397EB018A819B811496AD900B
:1018B000BD90CD90DC901797EC80FD800E811F814C
:1018C0009101281B390BB90137FF04C06627772720
:1018D000621B730B603271050CF061C012161306A7
:1018E0006CF537014801062E04C0969487947794CE
:1018F00067940A94D2F721E030E040E050E004C061
:10190000220F331F441F551F6A95D2F721503040D4
:10191000404050402E213F214023512321153105C5
:101920004105510521F021E030E040E050E079012F
:101930008A01E628F728082919293CC0232BD1F170
:10194000260E371E35014601062E04C09694879454
:10195000779467940A94D2F721E030E040E050E0B9
:1019600004C0220F331F441F551F6A95D2F7215020
:101970003040404050402A213B214C215D2121151F
:1019800031054105510521F021E030E040E050E013
:1019900059016A01A628B728C828D9280BC0821582
:1019A00093052CF01C01AA24BB24650103C0EE247E
:1019B000FF24870111969C91D20111968C91981762
:1019C00009F445C0992339F0A80197012A193B0968
:1019D0004C095D0906C0A60195012E193F09400B6F
:1019E000510B57FD08C01182338222822483358334
:1019F000468357831DC081E08183338222828827FA
:101A00009927DC01821B930BA40BB50B8483958370
:101A1000A683B7830DC0220F331F441F551F248395
:101A20003583468357838281938101979383828391
:101A30002481358146815781DA01C9010197A109C5
:101A4000B1098F5F9F4FAF4FBF4328F30BC0918306
:101A500033822282EA0CFB1C0C1D1D1DE482F582E0
:101A60000683178383E080832481358146815781F3
:101A700057FF1AC0C901AA2797FDA095BA2F8170F8
:101A80009070A070B0705695479537952795822B2A
:101A9000932BA42BB52B84839583A683B783828154
:101AA0009381019693838283DF0101C0D201CD012E
:101AB000CDB7DEB7E2E10C94F211A0E2B0E0E3E6CC
:101AC000FDE00C94E21169837A838B839C832D83E0
:101AD0003E834F835887E9E0EE2EF12CEC0EFD1E7D
:101AE000CE010196B7010E94E6108E010F5E1F4FD6
:101AF000CE010596B8010E94E6108A8991E08927F7
:101B00008A8BC701B801AE01475E5F4F0E94110C7E
:101B10000E941110A096E6E00C94FE11A0E2B0E045
:101B2000E4E9FDE00C94E21169837A838B839C8362
:101B30002D833E834F835887F9E0EF2EF12CEC0E76
:101B4000FD1ECE010196B7010E94E6108E010F5EC8
:101B50001F4FCE010596B8010E94E610C701B801DB
:101B6000AE01475E5F4F0E94110C0E941110A096BB
:101B7000E6E00C94FE11A8E1B0E0E1ECFDE00C948D
:101B8000DE1169837A838B839C832D833E834F830D
:101B90005887B9E0EB2EF12CEC0EFD1ECE0101961C
:101BA000B7010E94E6108E010F5E1F4FCE01059611
:101BB000B8010E94E6102985223008F47EC03989D8
:101BC000323010F4B8017CC08A859A8989278A87C7
:101BD000243011F0223031F4231709F06EC063E194
:101BE00071E06EC0343039F41D861E861F86188A57
:101BF0001C861B8604C0323021F484E08987B7013B
:101C00005FC02B853C858B899C89281B390B3C87C1
:101C10002B87ED84FE840F851889AD88BE88CF8818
:101C2000D88CEA14FB040C051D0540F4EE0CFF1CD7
:101C3000001F111F215030403C872B8720E030E0EF
:101C400040E050E080E090E0A0E0B0E460E070E0D0
:101C5000EA14FB040C051D0540F0282B392B4A2BF8
:101C60005B2BEA18FB080C091D09B695A7959795FB
:101C70008795EE0CFF1C001F111F6F5F7F4F6F31A8
:101C8000710531F7DA01C9018F779070A070B070DB
:101C900080349105A105B10561F427FD0AC0E11466
:101CA000F1040105110529F0205C3F4F4F4F5F4FB4
:101CB00020782D873E874F87588BBE01675F7F4F07
:101CC000CB010E9411106896EAE00C94FA11A8E189
:101CD000B0E0EDE6FEE00C94E21169837A838B8339
:101CE0009C832D833E834F83588789E0E82EF12C17
:101CF000EC0EFD1ECE010196B7010E94E6108E018A
:101D00000F5E1F4FCE010596B8010E94E61089852F
:101D1000823040F08989823028F0C701B8010E94E2
:101D20005E1101C08FEF6896E6E00C94FE11A8E00A
:101D3000B0E0EDE9FEE00C94DF119B01AC0183E023
:101D40008983DA01C9018827B7FD83959927AA27D6
:101D5000BB27B82E211531054105510519F482E044
:101D600089833AC08823A9F0203080E0380780E0DA
:101D7000480780E8580729F460E070E080E09FECB5
:101D800030C0EE24FF248701E21AF30A040B150B7E
:101D900002C079018A018EE1C82ED12CDC82CB826F
:101DA000ED82FE820F831887C801B7010E94C20F1F
:101DB00001971816190684F4082E04C0EE0CFF1CB7
:101DC000001F111F0A94D2F7ED82FE820F8318873D
:101DD000C81AD90ADC82CB82BA82CE0101960E944F
:101DE00011102896E9E00C94FB11ACE0B0E0EBEFA9
:101DF000FEE00C94E61169837A838B839C83CE0189
:101E00000196BE016B5F7F4F0E94E6108D8182308C
:101E100061F1823050F1843021F48E81882351F1B8
:101E20002EC02F81388537FD20C06E812F313105BE
:101E30001CF06623F9F023C08EE190E0821B930B27
:101E400029853A854B855C8504C05695479537951D
:101E500027958A95D2F76623B1F050954095309535
:101E600021953F4F4F4F5F4F0EC020E030E040E0E4
:101E700050E009C02FEF3FEF4FEF5FE704C020E0D5
:101E800030E040E050E8B901CA012C96E2E00C9441
:101E90000212A8E0B0E0EFE4FFE00C94DE117B0159
:101EA0008C01611571058105910519F482E0898322
:101EB00060C083E089838EE1C82ED12CDC82CB8286
:101EC000ED82FE820F831887C801B7010E94C20FFE
:101ED000FC013197F7FF3BC0222733272E1B3F0B16
:101EE00057016801022E04C0D694C794B794A794F2
:101EF0000A94D2F740E050E060E070E081E090E0CA
:101F0000A0E0B0E004C0880F991FAA1FBB1F2A954C
:101F1000D2F70197A109B1098E219F21A023B123F6
:101F20000097A105B10521F041E050E060E070E0CC
:101F30004A295B296C297D294D835E836F837887CD
:101F40008EE190E08E1B9F0B9C838B8312C0309799
:101F500081F00E2E04C0EE0CFF1C001F111F0A940E
:101F6000D2F7ED82FE820F831887CE1ADF0ADC8259
:101F7000CB821A82CE0101960E9411102896EAE0C7
:101F80000C94FA11EF92FF920F931F937B018C0137
:101F900080E0E81680E0F80681E0080780E0180796
:101FA00088F48FEFE816F1040105110531F028F0EF
:101FB00088E090E0A0E0B0E017C080E090E0A0E012
:101FC000B0E012C080E0E81680E0F80680E0080784
:101FD00081E0180728F088E190E0A0E0B0E004C0BC
:101FE00080E190E0A0E0B0E020E230E040E050E0AE
:101FF000281B390B4A0B5B0B04C016950795F79409
:10200000E7948A95D2F7F701E55EFE4F8081281BA1
:10201000310941095109C9011F910F91FF90EF90BA
:102020000895DF92EF92FF920F931F93FC01E480DB
:10203000F58006811781D1808081823048F480E06C
:1020400090E0A0E1B0E0E82AF92A0A2B1B2BA5C0FA
:10205000843009F49FC0823021F4EE24FF248701EC
:1020600005C0E114F1040105110519F4E0E0F0E008
:1020700096C0628173819FEF623879070CF05BC074
:1020800022E83FEF261B370B2A3131052CF020E0E8
:1020900030E040E050E02AC0B801A701022E04C0A1
:1020A00076956795579547950A94D2F781E090E029
:1020B000A0E0B0E004C0880F991FAA1FBB1F2A959B
:1020C000D2F70197A109B1098E219F21A023B12345
:1020D0000097A105B10521F081E090E0A0E0B0E01B
:1020E0009A01AB01282B392B4A2B5B2BDA01C90152
:1020F0008F779070A070B07080349105A105B10504
:1021000039F427FF09C0205C3F4F4F4F5F4F04C099
:10211000215C3F4F4F4F5F4FE0E0F0E02030A0E008
:102120003A07A0E04A07A0E45A0710F0E1E0F0E027
:1021300079018A0127C06038710564F5FB01E15817
:10214000FF4FD801C7018F779070A070B0708034B6
:102150009105A105B10539F4E7FE0DC080E490E0DA
:10216000A0E0B0E004C08FE390E0A0E0B0E0E80EB3
:10217000F91E0A1F1B1F17FF05C016950795F79438
:10218000E794319687E016950795F794E7948A953A
:10219000D1F705C0EE24FF248701EFEFF0E06E2FAA
:1021A000679566276795902F9F77D794DD24D794FE
:1021B0008E2F8695492F462B582F5D29B701CA01CE
:1021C0001F910F91FF90EF90DF900895FC01DB01CC
:1021D000408151812281622F6F7770E0221F222778
:1021E000221F9381892F880F822B282F30E0991F7F
:1021F0009927991F11969C93119721153105A9F5DF
:10220000411551056105710511F482E037C082E87E
:102210009FEF13969C938E9312979A01AB0167E000
:10222000220F331F441F551F6A95D1F783E08C930B
:102230000DC0220F331F441F551F12968D919C9184
:102240001397019713969C938E931297203080E0FA
:10225000380780E0480780E4580758F314962D9318
:102260003D934D935C93179708952F3F310579F473
:10227000411551056105710519F484E08C930895A9
:1022800064FF03C081E08C9312C01C9210C02F57D2
:10229000304013963C932E93129783E08C9387E003
:1022A000440F551F661F771F8A95D1F770641496E7
:1022B0004D935D936D937C93179708951F93DC0165
:1022C000FB019C91923008F447C08081823008F471
:1022D00043C0943051F411961C91843099F581815A
:1022E000682F70E0611B71093FC0843021F092308B
:1022F00031F48230B9F18181882389F12DC01196A2
:102300001C9111978230F1F081811817D9F412963F
:102310002D913C911397828193818217930794F0BA
:1023200028173907BCF014968D919D910D90BC91A2
:10233000A02D2481358146815781281739074A0706
:102340005B0718F4112341F00AC082179307A40712
:10235000B50740F4112319F061E070E005C06FEF9C
:102360007FEF02C060E070E0CB011F910895629F93
:10237000D001739FF001829FE00DF11D649FE00D7D
:10238000F11D929FF00D839FF00D749FF00D659FDE
:10239000F00D9927729FB00DE11DF91F639FB00DDD
:1023A000E11DF91FBD01CF01112408952F923F9225
:1023B0004F925F926F927F928F929F92AF92BF9255
:1023C000CF92DF92EF92FF920F931F93CF93DF9301
:1023D000CDB7DEB7CA1BDB0B0FB6F894DEBF0FBE5E
:1023E000CDBF09942A88398848885F846E847D84AB
:1023F0008C849B84AA84B984C884DF80EE80FD80AD
:102400000C811B81AA81B981CE0FD11D0FB6F89422
:10241000DEBF0FBECDBFED010895FB019F01E89423
:102420004230C4F04532B4F44A3029F497FB1EF42C
:10243000909581959F4F642F77270E941814805D97
:102440008A330CF0895D8193CB010097A1F716F4D4
:102450005DE251931082C9010C946613FA01CF9387
:10246000FF93EF93223044F1253234F5C22FE894E4
:10247000CA3049F497FB3EF490958095709561952C
:102480007F4F8F4F9F4F2C2F332744275527FF9384
:10249000EF930E942C14EF91FF91605D6A330CF072
:1024A000695D6193B901CA016050704080409040FD
:1024B00051F716F4CDE2C19310828F919F91CF9185
:1024C0000C946613FA01CF93FF93EF932230CCF074
:1024D0002532BCF4C22F2C2F332744275527FF93D6
:1024E000EF930E942C14EF91FF91605D6A330CF022
:1024F000695D6193B901CA016050704080409040AD
:1025000051F710828F919F91CF910C946613FB012C
:102510009F01423074F0453264F4642F77270E94A3
:102520001814805D8A330CF0895D8193CB0100978C
:10253000A1F71082C9010C946613DF93DD27B92F30
:10254000BF7740E85FE31616170648075B0710F4ED
:10255000D92F51D09F938F937F936F93B4D0EEE296
:10256000F1E013D037D02F913F914F915F9154D02C
:10257000DD2349F09058A2EA2AED3FE049EC5FE301
:10258000D0785D27C0D0DF9125C0DF93CF931F9314
:102590000F93FF92EF92DF927B018C01689405C04C
:1025A000DA2EEF0139D0FE01E894A59125913591FD
:1025B00045915591AEF3EF01A6D0FE019701A80118
:1025C000DA9479F7DF90EF90FF900F911F91CF9100
:1025D000DF910895092E0394000C11F4882352F022
:1025E000BB0F40F4BF2B11F460FF04C06F5F7F4F3F
:1025F0008F4F9F4F08959B01AC0160E070E080E831
:102600009FE3B9CADCD028F0E1D018F0952309F097
:10261000CDC0D2C0112404C1E0D0A0F3959FD1F366
:10262000950F50E0551F629FF001729FBB27F00D80
:10263000B11D639FAA27F00DB11DAA1F649F6627D5
:10264000B00DA11D661F829F2227B00DA11D621F24
:10265000739FB00DA11D621F839FA00D611D221FDE
:10266000749F3327A00D611D231F849F600D211DC2
:10267000822F762F6A2F11249F5750408AF0E1F065
:1026800088234AF0EE0FFF1FBB1F661F771F881FAE
:1026900091505040A9F79E3F510570F087C0C0C0CF
:1026A0005F3FECF3983EDCF3869577956795B79599
:1026B000F795E7959F5FC1F7FE2B880F911D9695C3
:1026C000879597F908959B01AC01B0C0DC01FC012E
:1026D000672F71917723E1F7329704C07C916D9356
:1026E00070836291AE17BF07C8F3089568D030F0C9
:1026F0006DD020F031F49F3F11F41EF45DC00EF454
:10270000E095E7FB53C0E92F68D080F3BA17620762
:1027100073078407950718F071F49EF580C00EF4D6
:10272000E0950B2EBA2FA02D0B01B90190010C01E1
:10273000CA01A0011124FF27591B99F0593F50F4F9
:10274000503E68F11A16F040A22F232F342F442751
:10275000585FF3CF469537952795A795F040539549
:10276000C9F77EF41F16BA0B620B730B840BBAF019
:102770009150A1F0FF0FBB1F661F771F881FC2F784
:102780000EC0BA0F621F731F841F48F48795779598
:102790006795B795F7959E3F08F0B3CF9395880F4F
:1027A00008F09927EE0F97958795089597F99F67F9
:1027B00080E870E060E008959FEF80EC08950024C9
:1027C0000A941616170618060906089500240A9496
:1027D0001216130614060506089557FD9058440F67
:1027E000551F59F05F3F71F04795880F97FB991F70
:1027F00061F09F3F79F0879508951216130614062D
:10280000551FF2CF4695F1DF08C0161617061806B9
:10281000991FF1CF86957105610508940895E89494
:10282000BB2766277727CB0197F90895F5DED2CE2F
:10283000AA1BBB1B51E107C0AA1FBB1FA617B707E6
:1028400010F0A61BB70B881F991F5A95A9F7809502
:102850009095BC01CD010895A1E21A2EAA1BBB1BC5
:10286000FD010DC0AA1FBB1FEE1FFF1FA217B3075C
:10287000E407F50720F0A21BB30BE40BF50B661F72
:10288000771F881F991F1A9469F760957095809536
:1028900090959B01AC01BD01CF010895F894FFCF45
:1028A0000124010000C8C20000C8C20100E100000C
:1028B0000000080000000000000000000102020308
:1028C00003030304040404040404040505050505C6
:1028D00005050505050505050505050606060606A3
:1028E0000606060606060606060606060606060688
:1028F0000606060606060606060606070707070773
:102900000707070707070707070707070707070757
:102910000707070707070707070707070707070747
:102920000707070707070707070707070707070737
:102930000707070707070707070707080808080822
:102940000808080808080808080808080808080807
:1029500008080808080808080808080808080808F7
:1029600008080808080808080808080808080808E7
:1029700008080808080808080808080808080808D7
:1029800008080808080808080808080808080808C7
:1029900008080808080808080808080808080808B7
:1029A00008080808080808080808080808080808A7
:0C29B000080808080808080808080800C3
:00000001FF
