:100000000C9416010C9433010C9433010C9450049D
:100010000C9433010C9433010C9433010C94330190
:100020000C9433010C9433010C947D090C94B809A1
:100030000C9433010C9433010C9433010C94330170
:100040000C9433010C9433010C9433010C94330160
:100050000C9433010C9433010C9433010C94330150
:100060000C9433010C9433010C9433010C94330140
:100070000C9433010C9433010C9433010C94330130
:100080000C9433010C9433010C9433010C94330120
:100090000C9433010C9433010C9433010C94330110
:1000A0000C9433010C9433010C94330111090E09A3
:1000B0000B09080905090209FF08FC08F908F608F8
:1000C000F308F008ED08EA08E708E408E108DE08AC
:1000D000DB08D808D508D208CF08CC08C908C6085C
:1000E000C308C008BD08BA08B708B408B108AE080C
:1000F000AB08A808A508A2089F089C0899089608BC
:10010000930890088D088A088708840881087E086B
:100110007B087808750872086F086C08690866081B
:10012000630860085D085A08570854085108084ACF
:10013000D73B3BCE016E84BCBFFDC12F3D6C7431FB
:100140009ABD56833DDA3D00C77F11BED9E4BB4C52
:100150003E916BAAAABE000000803F05A84CCDB21C
:10016000D44EB93836A9020C50B9918688083CA6FD
:10017000AAAA2ABE000000803F00010000AD0112C3
:1001800000020000BF01430003000002020401035B
:100190000904060212020309041A020603030904F1
:1001A0002202080001C112018036018136120100CD
:1001B0000202000010C0167A0400010102030109C6
:1001C000024300020100C0320904000001020201E2
:1001D0000005240010010524010101042402060584
:1001E00024060001070582031000400904010002F3
:1001F0000A000000070503024000000705840240D2
:1002000000000403090412034A002E0020004600E7
:10021000690065006E006500000006034D003200B5
:1002200000000803340031003000000011241FBE1C
:10023000CFEFDAE0DEBFCDBF11E0A0E0B1E0ECE54A
:10024000FBE302C005900D92A433B107D9F711E08A
:10025000A4E3B1E001C01D92A039B107E1F70E940B
:1002600035010C94AC1D0C9400002F923F924F92DC
:100270005F926F927F928F929F92AF92BF92CF9236
:10028000DF92EF92FF920F931F93DF93CF93CDB73F
:10029000DEB760970FB6F894DEBF0FBECDBF0E94E9
:1002A000BC0382E090E00E9465036E9A76986A9A99
:1002B000729882E090E00E9465036E9A769A6A9A3C
:1002C000729A82E090E00E9465038BE591E00E94C3
:1002D000F90580935A01882329F4EE24FF2480E055
:1002E00090E09EC1EBE5F1E080E090E060E070E03E
:1002F0002081318143E02F3F340720F46F5F7F4F2F
:10030000820F931F369651E0E337F50789F7109275
:10031000510110925001769700E010E0CC24DD24CA
:1003200020813181A3E02F3F3A0728F40894C11CB3
:10033000D11C020F131F3696B1E0E537FB0781F79A
:10034000C0925001D09251010E94C31C7B01C80190
:10035000B6010E94C31CCB0163C18BE591E00E94F2
:10036000F90580935A01882309F490C08BE5C82EC3
:1003700081E0D82E0F2EF0E0EF2EF0E0FF2EF0E01F
:100380000F2FF0E01F2FF02DAA24BB24F60160816F
:100390007181F3E06F3F7F0778F40894A11CB11CD2
:1003A00080E090E00E94D41A9B01AC01C801B70123
:1003B0000E946E197B018C0126E030E0C20ED31E34
:1003C00033E7C31631E0D30609F7B501882777FD77
:1003D0008095982F0E94D61A9B01AC01C801B701E5
:1003E0000E943B1A6093340170933501809336016B
:1003F0009093370110925101109250014AEE5FEF35
:10040000C40ED51E0F2EF0E0EF2EF0E0FF2EF0E030
:100410000F2FF0E01F2FF02DAA24BB24D6016D91E1
:100420007C91B3E06F3F7B0778F40894A11CB11C6A
:1004300080E090E00E94D41A9B01AC01C801B70192
:100440000E946E197B018C01E6E0F0E0CE0EDF1E0B
:10045000F5E7CF16F1E0DF0609F7A0925001B09260
:100460005101B501882777FD8095982F0E94D61AF3
:100470009B01AC01C801B7010E943B1A609338018F
:100480007093390180933A0190933B01A090380119
:10049000B0903901C0903A01D0903B0169817A81D6
:1004A0008B819C810E94D61A3B014C01C601B5018B
:1004B000A40193010E94E41B18160CF053C0C20162
:1004C000B1010E94D61A9B01AC01C601B5010E9480
:1004D000341A88230CF046C0E0903401F0903501C6
:1004E00000913601109137016D817E818F81988551
:1004F0000E94D61A9B01AC01C801B7010E94E41BFF
:10050000181674F06D857E858F8598890E94D61A9D
:100510009B01AC01C801B7010E94341A8823E4F49E
:1005200069857A858B859C850E94D61A9B01AC01D2
:10053000C801B7010E94341A88233CF421E030E05E
:1005400030935501209354010DC042E050E0509388
:1005500055014093540106C084E090E0909355010A
:1005600080935401C601B501A40193010E94341A7D
:10057000181634F0A2E0B0E0B0935501A0935401F6
:10058000C201B1010E94D61A9B01AC01C601B5019E
:100590000E94E41B882334F0E3E0F0E0F09355017F
:1005A000E09354018091540190915501823091055E
:1005B00091F083309105E1F0019729F584E190E015
:1005C0000E94780384E190E00E9491036E9A7698ED
:1005D0006A9A72985AC084E190E00E94780380E0A1
:1005E00090E00E9491036A9A72986E9A769A4DC032
:1005F00080E090E00E94780384E190E00E94910303
:100600006E9A76980AC080E090E00E94780380E0BD
:1006100090E00E9491036E9A769A6A9A729A35C017
:100620000A979C01442737FD4095542F29833A832C
:100630004B835C8344961C01442437FC4094542C27
:100640004AE050E0E40EF51EC701AA2797FDA095E9
:10065000BA2F8D839E83AF83B887A6EFBFEFEA0ED4
:10066000FB1E9701442737FD4095542F29873A8771
:100670004B875C87EA0EFB1EC701AA2797FDA09552
:10068000BA2F8D879E87AF87B88B8091520190914A
:100690005301892B09F461CE60960FB6F894DEBF42
:1006A0000FBECDBFCF91DF911F910F91FF90EF90C3
:1006B000DF90CF90BF90AF909F908F907F906F9082
:1006C0005F904F903F902F90089540E050E060E998
:1006D00071E00AC020E137E2FB013197F1F72150C8
:1006E0003040D1F74F5F5F4F481759079CF308958B
:1006F00097FF06C022273327281B390B469802C0D4
:10070000469A9C018FE892E0AC01249FC001259F8E
:10071000900D349F900D1124909389008093880050
:10072000089597FF06C022273327281B390B4798C7
:1007300002C0479A9C018FE892E0AC01249FC0015F
:10074000259F900D349F900D112490938B008093E2
:100750008A000895909389018093880181E08093B5
:1007600087010895809187010895109287018091F3
:10077000880190918901089580E88093610010922A
:10078000610085BF85BF0E948606882319F06A9A9A
:10079000729801C06E9A7698809181008B7F8093C9
:1007A0008100809181008D7F809381008091810004
:1007B0008160809381008FEF9FEF909387008093FB
:1007C000860080918100806180938100809181000A
:1007D0008860809381008091800082608093800097
:1007E000809180008E7F80938000259A8091800088
:1007F000806880938000809180008F7B8093800050
:10080000269A809180008062809380008091800091
:100810008F7E8093800080918000877F809380000E
:10082000809180008B7F80938000109289001092CD
:10083000880010928B0010928A003E9A3F9A469848
:10084000479808959C01462F862FB9010E940E05F6
:100850000895CF93DF93EC0180918A0190918B01F1
:10086000849729F084E2BE0144E20E940E05809143
:100870008A0190918B01859729F085E2BE0145E2BE
:100880000E940E0580918A0190918B01869729F034
:1008900086E2BE0146E20E940E05DF91CF910895E7
:1008A0001F920F920FB60F9211240F931F932F9345
:1008B0003F934F935F936F937F938F939F93AF93E8
:1008C000BF93EF93FF93DF93CF930F92CDB7DEB734
:1008D0008E010F5F1F4FC80160918C010E94BF0401
:1008E000C8010E94AA030F90CF91DF91FF91EF9171
:1008F000BF91AF919F918F917F916F915F914F9138
:100900003F912F911F910F910F900FBE0F901F904D
:100910001895CF92DF92EF92FF920F931F93C82EFC
:10092000192FD62E072F7A010E94AE04C0928E0195
:1009300010938F01D0928A0100938B01E0928C0179
:10094000F0928D018C2D6D2D4E2D0E945B051F9117
:100950000F91FF90EF90DF90CF900895589A599A99
:100960005A9A8CE08093B800E9E6F0E080818062DA
:10097000808380818F7E8083EA9A789408959C0199
:1009800084EA8093BC008091BC0087FFFCCF81E5A6
:100990008093BB0084E88093BC008091BC0087FFFB
:1009A000FCCF8091B900887F883491F084EC8093EB
:1009B000BC008091BC0087FFFCCF8091BB008617F4
:1009C00039F4A0E0B0E070E06150704094EC12C0E7
:1009D00084E98093BC0080E008959093BC008091EE
:1009E000BC0087FFFCCF8091BB00F901EA0FFB1F21
:1009F00080831196A617B70784F384E88093BC0020
:100A00008091BC0087FFFCCF8091BB00A20FB31F79
:100A10008C9384E98093BC0081E00895982FF8942A
:100A200084EA8093BC008091BC0087FFFCCF80E506
:100A30008093BB0084E88093BC008091BC0087FF5A
:100A4000FCCF8091B900887F803231F484E98093B3
:100A5000BC00789480E0089583E08093BB0084E834
:100A60008093BC008091BC0087FFFCCF9093BB00BB
:100A700084E88093BC008091BC0087FFFCCF20E01D
:100A800030E050E094E80EC0FB01E20FF31F8081DC
:100A90008093BB009093BC008091BC0087FFFCCF8B
:100AA0002F5F3F4F241735077CF384E98093BC0008
:100AB000789481E00895FF920F931F93182F062FCB
:100AC000F42E0E94AE0484EA8093BC008091BC00A6
:100AD00087FFFCCF80E58093BB0084E88093BC0057
:100AE0008091BC0087FFFCCF8091B900887F803265
:100AF00029F484E98093BC0080E029C081E08093E0
:100B0000BB0084E88093BC008091BC0087FFFCCFD1
:100B10001093BB0084E88093BC008091BC0087FFE9
:100B2000FCCF0093BB0084E88093BC008091BC00A4
:100B300087FFFCCFF092BB0084E88093BC008091DB
:100B4000BC0087FFFCCF84E98093BC0081E01F914B
:100B50000F91FF90089520E030E08091BC0087FD68
:100B600006C02F5F3F4F83E0293E3807B1F780E092
:100B7000285E334009F081E008958093BB0084E84B
:100B80008093BC000E94AB05882319F08091B900C6
:100B9000887F08951F93182F84EA8093BC000E94D9
:100BA000AB05882369F0110F812F8F5F0E94BD056F
:100BB000883411F081E004C084E98093BC0080E0B7
:100BC0001F9108951F93182F84EA8093BC000E9400
:100BD000AB05882361F0812F880F0E94BD0580320C
:100BE00011F081E004C084E98093BC0080E01F9193
:100BF00008950F931F93DF93CF93CDB7DEB7609720
:100C00000FB6F894DEBF0FBECDBF182F092F88E5B1
:100C10000E94E205882309F469C086E30E94BD05AD
:100C2000882309F463C084E98093BC0085E88A9531
:100C3000F1F788E50E94CA05882309F457C0FE0130
:100C4000319680E1DF011D928A95E9F794EC9E01CF
:100C5000205F3F4F9093BC008091BC0087FFFCCF8A
:100C60008091BB008193E217F307A1F784E880939A
:100C7000BC008091BC0087FFFCCF8091BB00888BBB
:100C800084E98093BC00DE011296212F302FC90128
:100C9000FC01BE01625F7F4F12962C91129730E0EB
:100CA000C9018073907054E0880F991F5A95E1F73D
:100CB0004C91840F911D91838083C901807C907039
:100CC000880F991F880F991F11964C911197840FC7
:100CD000911D938382832F70307035832483139604
:100CE0003696A617B707C1F681E001C080E060968E
:100CF0000FB6F894DEBF0FBECDBFCF91DF911F912D
:100D00000F91089584E98093BC0008951F93CF93B9
:100D1000DF930E94AE0488E50E94E205882309F46F
:100D2000B3C080E30E94BD05882309F4ADC081E013
:100D30000E94BD05882309F4A7C084E98093BC0004
:100D400080E49CE90197F1F788E50E94E205882399
:100D500009F49AC080E00E94BD05882309F494C07C
:100D600080E00E94BD05882309F48EC080E00E94C7
:100D7000BD05882309F488C080E00E94BD05882352
:100D800009F482C080E00E94BD05882309F47CC07C
:100D900080E00E94BD05882309F476C080E00E94AF
:100DA000BD05882309F470C080E90E94BD05882331
:100DB00009F46AC014E91093BC00C0E4DCE9CE0178
:100DC0000197F1F788E50E94E205882309F45CC0E9
:100DD00087E00E94BD05882309F456C080E00E9488
:100DE000BD05882309F450C081E40E94BD05882315
:100DF00009F44AC01093BC00CE010197F1F788E5D1
:100E00000E94E205882309F43FC08AE10E94BD05E3
:100E1000882309F439C080E40E94BD058823A1F12C
:100E200080E00E94BD05882379F11093BC00CE01BB
:100E30000197F1F788E50E94E205882329F183E311
:100E40000E94BD05882301F183E00E94BD0588232F
:100E5000D9F01093BC00CE010197F1F788E50E940C
:100E6000E205882389F080E30E94BD05882361F0B4
:100E700088E00E94BD05882339F01093BC00CE01A4
:100E80000197F1F781E001C080E0DF91CF911F91E0
:100E9000089581E08093D70080EA8093D80082E1B2
:100EA00089BD09B400FEFDCF80E98093D80010927F
:100EB000E00010927301109274018CE08093E200C4
:100EC000789408958091730108952FB7F8948091D4
:100ED0007301882339F083E08093E9008091E80072
:100EE00085FD03C02FBF9FEF0AC09091F100809154
:100EF000E80085FD03C08BE68093E8002FBF892FB3
:100F000008959FB7F89480917301882329F083E0B6
:100F10008093E9008091F2009FBF08958091730152
:100F2000882371F09FB7F89483E08093E9002BE663
:100F300002C02093E8008091E80085FDFACF9FBFB2
:100F40000895482F809173018823D9F12FB7F89421
:100F500084E08093E90080917601882341F08091BC
:100F6000E80085FD02C02FBF12C01092760190915B
:100F7000E400975E34E08091E80085FD13C02FBF48
:100F80008091E400891729F481E0809376018FEF46
:100F90000895809173018823A1F02FB7F8943093BE
:100FA000E900E9CF4093F1008091E80085FD03C09E
:100FB0008AE38093E80085E0809375012FBF80E08D
:100FC00008958FEF0895282F80917301882351F0A1
:100FD0009FB7F89484E08093E9008091E80085FD54
:100FE00003C09FBF8FEF08952093F1008091E80028
:100FF00085FD03C08AE38093E80085E08093750156
:101000009FBF80E00895CF93DF93EC01809173013F
:10101000882309F41CC13FB7F89484E08093E90069
:1010200080917601882309F407C18091E80085FD4D
:1010300002C03FBF0CC110927601FEC09091E40047
:10104000975E8091E80085FD13C03FBF8091E4006A
:10105000891721F481E080937601F9C080917301B2
:10106000882309F4F4C03FB7F8945093E900E9CF1E
:101070008091F2002A2F281B822F90E068177907B1
:1010800008F4262F822F90E08134910508F0C6C025
:101090008A5A9F4FFC01EE0FFF1F0590F491E02D3F
:1010A000099489918093F10089918093F10089914D
:1010B0008093F10089918093F10089918093F100F0
:1010C00089918093F10089918093F10089918093B7
:1010D000F10089918093F10089918093F1008991C9
:1010E0008093F10089918093F10089918093F100C0
:1010F00089918093F10089918093F1008991809387
:10110000F10089918093F10089918093F100899198
:101110008093F10089918093F10089918093F1008F
:1011200089918093F10089918093F1008991809356
:10113000F10089918093F10089918093F100899168
:101140008093F10089918093F10089918093F1005F
:1011500089918093F10089918093F1008991809326
:10116000F10089918093F10089918093F100899138
:101170008093F10089918093F10089918093F1002F
:1011800089918093F10089918093F10089918093F6
:10119000F10089918093F10089918093F100899108
:1011A0008093F10089918093F10089918093F100FF
:1011B00089918093F10089918093F10089918093C6
:1011C000F10089918093F10089918093F1008991D8
:1011D0008093F10089918093F10089918093F100CF
:1011E00089918093F10089918093F1008991809396
:1011F000F10089918093F10089918093F1008991A8
:101200008093F10089918093F10089918093F1009E
:1012100089918093F10089918093F1008991809365
:10122000F1008091E80085FD02C0B093E800621BE8
:1012300071094093750104C054E0A0E4BAE345E0AD
:101240006115710509F0FACE3FBF80E001C08FEF54
:10125000DF91CF9108959FB7F8948091750188230D
:1012600041F084E08093E9008AE38093E8001092E3
:1012700075019FBF089560910C0170910D018091DF
:101280000E0190910F0108958091100108958091B1
:1012900011010895809112010895809174010895BB
:1012A000382F9FB7F89480917301882339F022E09A
:1012B0002093E9008091E80085FD03C09FBF8FEF78
:1012C000089581EA8093F10080E28093F10010920A
:1012D000F1001092F1001092F1001092F1002093B1
:1012E000F1001092F1003093F1001092F1008AE3C6
:1012F0008093E8009FBF80E008951F920F920FB681
:101300000F9211248F939F938091E1001092E1003E
:10131000982F83FF11C01092E90081E08093EB00C9
:101320001092EC0082E18093ED0088E08093F00061
:10133000109273011092740192FF13C08091730197
:10134000882379F080917501882359F0815080932A
:101350007501882331F484E08093E9008AE3809367
:10136000E8009F918F910F900FBE0F901F901895DE
:101370001F920F920FB60F9211240F931F932F936A
:101380003F934F935F936F937F938F939F93AF930D
:10139000BF93EF93FF931092E9008091E80083FFE1
:1013A0003CC14091F1003091F1008091F100682F33
:1013B00070E02091F100922F80E0682B792B8091D2
:1013C000F100A82FB0E02091F100922F80E0A82B2F
:1013D000B92B1091F1000091F10082EF8093E800A9
:1013E000363009F05AC020E831E0A901455050409C
:1013F000F9013797859194918617970701F5FA01BE
:10140000859194918A179B07D1F49A012E5F3F4FE3
:10141000F901659174912E5F3F4FF9014491212F9D
:1014200030E0902F80E0282B392B2F3F310519F029
:1014300010F02FEF30E0241758F4422F09C0295F35
:101440003F4F495F5F4FF1E02A3A3F0789F6E5C019
:101450005EEF8091E800282F30E0C9018570907020
:10146000892BB9F322FDDCC0342F413108F030E183
:10147000232FCB0106C0FC010196E491E093F1001B
:1014800021502223C1F7630F711D431B5093E800C5
:101490004423F9F63031E9F2C3C0353061F48EEF00
:1014A0008093E8008091E80080FFFCCF862F806861
:1014B0008093E300B5C0393051F5442309F0ADC045
:1014C0006093730110927401109275018EEF8093F6
:1014D000E80083EA91E021E02093E900FC01019615
:1014E000E491E093EB00EE2369F0AC014F5F5F4FB6
:1014F000FC0184918093EC00CA010196FA013491B9
:101500003093ED002F5F253039F78EE181C0383000
:1015100061F4403809F081C08091E80080FFFCCF81
:10152000809173018093F10050C0313289F4413AC7
:1015300009F073C08091E80080FFFCCFECE0F1E09F
:1015400081918093F10081E0E331F807C9F73DC054
:101550003032A1F4413209F060C08091E80082FF8E
:10156000FCCFECE0F1E08091F100819381E0E33188
:10157000F807C9F78BEF8093E80027C0323251F4A7
:10158000413209F04AC0609374018091E80080FF05
:10159000FCCF1BC03323E9F48091E80080FFFCCF2F
:1015A000423811F080E00DC0A093E9008091EB007B
:1015B00090E025E0969587952A95E1F78170109245
:1015C000E9008093F1001092F1008EEF8093E80023
:1015D00027C0313011F0333001F54230F1F4672B80
:1015E000E1F42A2F2F77822F81508430B0F48EEFD0
:1015F0008093E8002093E900333079F089E180930B
:10160000EB0081E090E002C0880F991F2A95E2F775
:101610008093EA001092EA0003C081E28093EB001D
:10162000FF91EF91BF91AF919F918F917F916F91BA
:101630005F914F913F912F911F910F910F900FBE8E
:101640000F901F9018951F93CF93DF93EC01FE012D
:1016500021961491112349F01A3019F48DE00E945B
:10166000A107812F0E94A107F2CFDF91CF911F9197
:101670000895982F8A3010F087E301C080E3890F26
:101680000E94A10708951F93182F82958F700E94C2
:10169000390B812F8F700E94390B1F9108951F9372
:1016A000182F892F0E94430B812F0E94430B1F91FB
:1016B00008950E94430B0895EF92FF920F931F939A
:1016C000DF93CF93CDB7DEB72A970FB6F894DEBF7E
:1016D0000FBECDBF8E010F5F1F4F2AE0F8011192A0
:1016E0002A95E9F7A8012AE030E00E943F1D3BE07F
:1016F000E32EF12CEC0EFD1EF80181918F010E946A
:10170000A1070E151F05C1F72A960FB6F894DEBF84
:101710000FBECDBFCF91DF911F910F91FF90EF9042
:101720000895EF92FF920F931F93DF93CF93CDB75E
:10173000DEB72B970FB6F894DEBF0FBECDBF8E017C
:101740000F5F1F4F2BE0F80111922A95E9F7A801CE
:101750002AE030E00E940B1D4CE0E42EF12CEC0E50
:10176000FD1EF80181918F010E94A1070E151F0532
:10177000C1F72B960FB6F894DEBF0FBECDBFCF9149
:10178000DF911F910F91FF90EF900895EF92FF92DC
:101790000F931F93DF93CF9300D000D00F92CDB75C
:1017A000DEB78E010F5F1F4F25E0F80111922A95D9
:1017B000E9F7B8014AE050E00E94641D56E0E52ECA
:1017C000F12CEC0EFD1EF80181918F010E94A10702
:1017D0000E151F05C1F70F900F900F900F900F90EF
:1017E000CF91DF911F910F91FF90EF900895EF92AD
:1017F000FF920F931F93DF93CF9300D000D000D0C0
:10180000CDB7DEB78E010F5F1F4F26E0F8011192B2
:101810002A95E9F7B8014AE050E00E94EA1C67E027
:10182000E62EF12CEC0EFD1EF80181918F010E9435
:10183000A1070E151F05C1F726960FB6F894DEBF57
:101840000FBECDBFCF91DF911F910F91FF90EF9011
:10185000089590938401809383017093860160932F
:10186000850108952F923F924F925F926F927F92DF
:101870008F929F92AF92BF92CF92DF92EF92FF92A0
:101880000F931F93962E872E782E692ED22EC32E5D
:10189000B42EA52E5E2C4F2C302E212E622F732FAE
:1018A000842F952F292D382D472D562D0E94341A1F
:1018B00088232CF4ED2CFC2C0B2D1A2D04C0E92CC4
:1018C000F82C072D162D652D742D832D922D970143
:1018D000A8010E94341A882324F4E52CF42C032D4B
:1018E000122DB701C8011F910F91FF90EF90DF906B
:1018F000CF90BF90AF909F908F907F906F905F90B0
:101900004F903F902F9008952F923F924F925F9269
:101910006F927F928F929F92AF92BF92CF92DF92FF
:10192000EF92FF920F931F93DF93CF9300D000D0DD
:10193000CDB7DEB7562E472E382E292E922E832E67
:10194000742E652EE982FA820B831C83622F732F1B
:10195000842F952F252D342D432D522D0E94341A7E
:1019600088232CF4E92CF82C072D162D04C0E52C27
:10197000F42C032D122D69817A818B819C81970132
:10198000A8010E94341A882324F4E980FA800B818C
:101990001C81B501C6019701A8010E94341A882351
:1019A00014F475018601B701C8010F900F900F90D4
:1019B0000F90CF91DF911F910F91FF90EF90DF90EB
:1019C000CF90BF90AF909F908F907F906F905F90DF
:1019D0004F903F902F9008952F923F924F925F9299
:1019E0006F927F928F929F92AF92BF92CF92DF922F
:1019F000EF92FF920F931F93DF93CF93CDB7DEB794
:101A0000C25DD0400FB6F894DEBF0FBECDBFC55447
:101A1000DF4F99838883CB5BD040DC01ED90FC9055
:101A2000119712968D909C90139714966D907C90C0
:101A3000159716962D903C9017971896ED91FC915E
:101A40001997C156DF4FF983E883CF59D0401A96D2
:101A50002D913C911B97C356DF4F39832883CD5975
:101A6000D0401C968D919C911D97C556DF4F998350
:101A70008883CB59D0401E964D905C901F97FE01F5
:101A8000319688E0DF011D928A95E9F7C556DF4F50
:101A9000E881F981CB59D040EF2B09F03FC64114C2
:101AA000510409F03BC6C156DF4F68817981CF5997
:101AB000D040660D771D6E0D7F1D882777FD8095C0
:101AC000982F0E94D61A20E030E040E450E40E94B3
:101AD0003B1AC657DF4F688379838A839B83CA5832
:101AE000D040B101680D791DC356DF4F288139817F
:101AF000CD59D040620F731F882777FD8095982FAE
:101B00000E94D61A20E030E040E450E40E943B1AE4
:101B1000CA57DF4F688379838A839B83C658D04036
:101B2000B701882777FD8095982F0E94D61AC6574F
:101B3000DF4F288139814A815B81CA58D0400E9499
:101B40006D195B016C01B401882777FD8095982F92
:101B50000E94D61ACA57DF4F288139814A815B819A
:101B6000C658D0400E946D197B018C01C601B50199
:101B7000A60195010E94EF1B5B016C01C801B70132
:101B8000A80197010E94EF1B9B01AC01C601B501A2
:101B90000E946E190E945C1CCE57DF4F68837983C8
:101BA0008A839B83C258D040B301882777FD8095F4
:101BB000982F0E94D61AC657DF4F288139814A8153
:101BC0005B81CA58D0400E946D195B016C01B10164
:101BD000882777FD8095982F0E94D61ACA57DF4F25
:101BE000288139814A815B81C658D0400E946D1995
:101BF0007B018C01C601B501A60195010E94EF1B76
:101C00005B016C01C801B701A80197010E94EF1B9D
:101C10009B01AC01C601B5010E946E190E945C1CBB
:101C2000C258DF4F688379838A839B83CE57D04025
:101C3000C156DF4FA881B981CF59D040BD01882757
:101C400077FD8095982F0E94D61AC657DF4F2881BE
:101C500039814A815B81CA58D0400E946D195B016D
:101C60006C01C356DF4FE881F981CD59D040BF01E7
:101C7000882777FD8095982F0E94D61ACA57DF4F84
:101C8000288139814A815B81C658D0400E946D19F4
:101C90007B018C01C601B501A60195010E94EF1BD5
:101CA0005B016C01C801B701A80197010E94EF1BFD
:101CB0009B01AC01C601B5010E946E190E945C1C1B
:101CC0005B016C01C258DF4F688179818A819B81F9
:101CD000CE57D040CE57DF4F288139814A815B8172
:101CE000C258D0400E94341A88234CF4C258DF4FA7
:101CF00088819981AA81BB81CE57D04008C0CE5738
:101D0000DF4F88819981AA81BB81C258D0407C0174
:101D10008D01C601B5019701AD010E94341A8823D7
:101D20001CF48601750104C0C701D8017C018D0136
:101D3000CE57DF4F688179818A819B81C258D0401C
:101D4000A80197010E943B1A0E94A31AC754DF4FB3
:101D500079836883C95BD040C258DF4F688179813D
:101D60008A819B81CE57D040A80197010E943B1ADF
:101D70000E94A31AC954DF4F79836883C75BD040A0
:101D8000C601B501A80197010E943B1A0E94A31A3F
:101D9000CB54DF4F79836883C55BD040DE01519619
:101DA000E3E2F1E080E101900D928150E1F7DE0184
:101DB0009196E3E1F1E080E101900D928150E1F72D
:101DC0009E01275F3F4F3CAB2BAB80E090E0A0E053
:101DD000B0E0C956DF4F88839983AA83BB83C75974
:101DE000D040CD56DF4F88839983AA83BB83C359E4
:101DF000D040C157DF4F88839983AA83BB83CF58D4
:101E0000D04091E0C257DF4F9883CE58D040C353A3
:101E1000DF4F1882CD5CD040C253DF4F1882CE5CBA
:101E2000D040C153DF4F1882CF5CD040C053DF4F4A
:101E30001882C05DD040EE961FAE1EAEEE97DE015A
:101E40005196CF52DF4FB983A883C15DD04053C4B0
:101E5000EC96EEADFFADEC97EE962EAD3FADEE9766
:101E6000E217F30709F41FC489A99AA9880F991FDB
:101E7000A9E0B0E0AC0FBD1FA80FB91F2696BFAFF9
:101E8000AEAF2697E9A9FAA92496FFAFEEAF249743
:101E90009E01275F3F4F22963FAF2EAF2297EA96D3
:101EA0001FAE1EAEEA97EA968EAD9FADEA97EE960C
:101EB000AEADBFADEE978A179B0709F4CCC3EC9685
:101EC000EEADFFADEC978E179F0709F4C4C30F2E3C
:101ED000F0E0EF2EF0E0FF2EF0E00F2FF0E01F2FEC
:101EE000F02D4701580166247724CC24DD24249664
:101EF0002EAD3FAD24976216730601F1E1E1F0E0EB
:101F0000EC0FFD1FEC0DFD1DC801B70120813181D3
:101F1000428153810E946E197B018C01E1E2F0E065
:101F2000EC0FFD1FEC0DFD1DC501B40120813181B9
:101F3000428153810E946E194B015C010894611C1F
:101F4000711C84E090E0C80ED91E94E069167104FB
:101F500071F6C801B70120E030E040E450E40E948F
:101F60003B1A6FAB78AF89AF9AAFC501B40120E0DF
:101F700030E040E450E40E943B1A1B012C0160E079
:101F800070E080E090E02FA938AD49AD5AAD0E94D5
:101F90006D19CF54DF4F688379838A839B83C15B3C
:101FA000D0409B01AC010E94EF1B5B016C0160E023
:101FB00070E088E691E4A20191010E946D19C35579
:101FC000DF4F688379838A839B83CD5AD0409B01FE
:101FD000AC010E94EF1B9B01AC01C601B5010E9440
:101FE0006E190E945C1CE8966CAF7DAF8EAF9FAF00
:101FF000E89761EE7AE78AE391E42FA938AD49AD1D
:102000005AAD0E946D19C755DF4F688379838A8363
:102010009B83C95AD04063E27BED8BE091E4A2013F
:1020200091010E946D19CB55DF4F688379838A83B4
:102030009B83C55AD040C755DF4F688179818A811B
:102040009B81C95AD0409B01AC010E94EF1B7B01D0
:102050008C01CB55DF4F688179818A819B81C55A7C
:10206000D0409B01AC010E94EF1B9B01AC01C80159
:10207000B7010E946E190E945C1CE4966CAF7DAFA4
:102080008EAF9FAFE49760E070E088E691ECA2012C
:1020900091010E946D199B01AC010E94EF1B9B01F5
:1020A000AC01C601B5010E946E190E945C1C3B0187
:1020B0004C016CE072E089E291EC2FA938AD49AD9A
:1020C0005AAD0E946D197B018C0169E779EE8EE1B2
:1020D00090E4A20191010E946D195B016C01C8019D
:1020E000B701A80197010E94EF1B7B018C01C6017B
:1020F000B501A60195010E94EF1B9B01AC01C8012F
:10210000B7010E946E190E945C1C5B016C01E8968D
:102110006CAD7DAD8EAD9FADE8970E94A31A7A8716
:102120006987E4966CAD7DAD8EAD9FADE4970E945E
:10213000A31A7C876B87C401B3010E94A31A7E8710
:102140006D87C601B5010E94A31A788B6F87ABA972
:10215000BCA90D90BC91A02DCD55DF4FB983A883AC
:10216000C35AD040E4966CAD7DAD8EAD9FADE49783
:10217000E8962CAD3DAD4EAD5FADE8970E94341AA8
:1021800088233CF4E496ECACFDAC0EAD1FADE497B7
:1021900006C0E896ECACFDAC0EAD1FADE897C401EF
:1021A000B301A80197010E94341A882314F4840112
:1021B0007301C601B501A80197010E94341A882352
:1021C00014F486017501CD55DF4F28813981C35A3A
:1021D000D0402696EEADFFAD269731832083C8010F
:1021E000B7010E94A31A9B01FE013996808191815B
:1021F000B9010E94C31C61937193CF52DF4F888154
:102200009981C15DD040E817F90781F7ABA9BCA956
:102210008D919C91C754DF4FE881F981C95BD04013
:10222000E81BF90BADADBEAD8D919C91C954DF4F4C
:1022300028813981C75BD040281B390B2296AEAD6F
:10224000BFAD22978D919C91CB54DF4F488159812E
:10225000C55BD040481B590B229FB001239F700DD6
:10226000329F700D1124EE9F9001EF9F300DFE9F65
:10227000300D1124620F731F449F9001459F300D54
:10228000549F300D1124620F731F882777FD8095AE
:10229000982F0E94D61AE0966CAF7DAF8EAF9FAF9D
:1022A000E097C257DF4FB881CE58D040BB23C9F466
:1022B000C353DF4F2881CD5CD040C253DF4F3881FC
:1022C000CE5CD040C153DF4F4881CF5CD040C0537B
:1022D000DF4F5881C05DD0400E94341A88230CF033
:1022E000BAC1EE96EEADFFADEE97FA83E983EC96B8
:1022F0002EAD3FADEC973C832B83EA968EAD9FAD20
:10230000EA979E838D8318861F822496AEADBFAD5B
:102310002497119709F062C060E070E02230310527
:1023200011F461E070E04B018D819E81029719F4F8
:10233000B2E08B2E912CC201B10190582FA938AD7B
:1023400049AD5AAD50580E94E1197B018C01CB5523
:10235000DF4F688179818A819B81C55AD040C755FA
:10236000DF4F288139814A815B81C95AD0400E9460
:10237000E1199B01AC01C801B7010E946D19AC962F
:102380006CAF7DAF8EAF9FAFAC976FA978AD89ADC5
:102390009AAD9B01AC010E94EF1B7B018C01C20135
:1023A000B101A20191010E94EF1B9B01AC01C80188
:1023B000B7010E946E190E945C1C7B018C01C258FF
:1023C000DF4F688179818A819B81CE57D040E49626
:1023D0002CAD3DAD4EAD5FADE49764C060E070E004
:1023E000EC96EEADFFADEC97319711F461E070E043
:1023F0004B018D819E81019719F4A2E08A2E912CC8
:10240000C201B10190582FA938AD49AD5AAD50580D
:102410000E94E1197B018C01C355DF4F68817981EE
:102420008A819B81CD5AD040CF54DF4F288139819A
:102430004A815B81C15BD0400E94E1199B01AC01E4
:10244000C801B7010E946D19AC966CAF7DAF8EAF1D
:102450009FAFAC976FA978AD89AD9AAD9B01AC01E8
:102460000E94EF1B7B018C01C201B101A20191010D
:102470000E94EF1B9B01AC01C801B7010E946E19BD
:102480000E945C1C7B018C01CE57DF4F68817981F3
:102490008A819B81C258D040E8962CAD3DAD4EADAF
:1024A0005FADE8970E943B1AA80197010E94EF1BBD
:1024B000A8966CAF7DAF8EAF9FAFA897C201B10158
:1024C00090582FA938AD49AD5AAD50580E94E11926
:1024D0005B016C01880C991C880C991CC554DF4F5A
:1024E000E881F981CB5BD040E80DF91D62817381F1
:1024F000882777FD8095982F0E94D61ACA57DF4FFC
:10250000288139814A815B81C658D0400E946D196B
:102510007B018C01C554DF4F28813981CB5BD040D2
:10252000820E931ED4016D917C91882777FD809552
:10253000982F0E94D61AC657DF4F288139814A81C9
:102540005B81CA58D0400E946D199B01AC01C80143
:10255000B7010E94E119AC962CAD3DAD4EAD5FAD1B
:10256000AC970E946E19A60195010E946D19C15782
:10257000DF4F688379838A839B83CF58D040C6011D
:10258000B501C157DF4F288139814A815B81CF581E
:10259000D0400E946E197B018C01C8010E94381A3C
:1025A000A8962CAD3DAD4EAD5FADA8970E94EF1B38
:1025B0009B01AC01C657DF4F688179818A819B817D
:1025C000CA58D0400E946E19C956DF4F688379837C
:1025D0008A839B83C759D040B701C8010E94521C0F
:1025E000A8962CAD3DAD4EAD5FADA8970E94EF1BF8
:1025F0009B01AC01CA57DF4F688179818A819B8139
:10260000C658D0400E946E19CD56DF4F688379833B
:102610008A839B83C359D040E0968CAD9DADAEAD0F
:10262000BFADE097C353DF4F8883CD5CD040C2532A
:10263000DF4F9883CE5CD040C153DF4FA883CF5C7F
:10264000D040C053DF4FB883C05DD040C257DF4F8A
:102650001882CE58D040EA96EEADFFADEA9731969B
:10266000EA96FFAFEEAFEA9724962EAD3FAD2497E2
:102670002150304024963FAF2EAF249722968EAD46
:102680009FAD2297029622969FAF8EAF22972696F5
:10269000AEADBFAD269712972696BFAFAEAF2697C9
:1026A000349709F000CCEC96EEADFFADEC97319687
:1026B000EC96FFAFEEAFEC9729A93AA92150304034
:1026C0003AAB29AB8DAD9EAD02969EAF8DAF3497E0
:1026D00009F0BECBEE96AEADBFADEE971196EE967D
:1026E000BFAFAEAFEE97EBA9FCA93296FCABEBAB5C
:1026F000149709F47CC42AE030E0EE968EAD9FADCD
:10270000EE97281B390B3AAB29ABDE011996BEAF09
:10271000ADAFEC961FAE1EAEEC979ACB8DEA97E26A
:10272000ABE3B1E489A39AA3ABA3BCA38DE092E68B
:10273000ADE4B1E48DA39EA3AFA3B8A789E197E769
:10274000AAE8B1E489A79AA7ABA7BCA788EF93E74B
:10275000ADE2B1E48DA79EA7AFA7B8AB8E010F5D28
:102760001F4F71E3C72ED12CCC0EDD1EF801608106
:1027700071818281938128EF33E74DE251E40E9419
:102780003B1AD8016D937D938D939D938D01AC156C
:10279000BD0561F7C156DF4F68817981CF59D040BF
:1027A000660D771D6E0D7F1D640D751D882777FDE5
:1027B0008095982F0E94D61A20E030E040E85EE332
:1027C0000E94EF1BA4966CAF7DAF8EAF9FAFA49716
:1027D000B101680D791DC356DF4FE881F981CD59EC
:1027E000D0406E0F7F1F640D751D882777FD809583
:1027F000982F0E94D61A20E030E040E85EE30E9465
:10280000EF1BA0966CAF7DAF8EAF9FAFA097B701C7
:10281000882777FD8095982F0E94D61AA4962CAD14
:102820003DAD4EAD5FADA4970E946D195B016C018B
:10283000B401882777FD8095982F0E94D61AA0961C
:102840002CAD3DAD4EAD5FADA0970E946D197B01E3
:102850008C01C601B501A60195010E94EF1B5B0129
:102860006C01C801B701A80197010E94EF1B9B01F1
:10287000AC01C601B5010E946E190E945C1C6C96E9
:102880006CAF7DAF8EAF9FAF6C97B301882777FD9C
:102890008095982F0E94D61AA4962CAD3DAD4EADD2
:1028A0005FADA4970E946D195B016C01B10188278F
:1028B00077FD8095982F0E94D61AA0962CAD3DAD3D
:1028C0004EAD5FADA0970E946D197B018C01C601D2
:1028D000B501A60195010E94EF1B5B016C01C801C7
:1028E000B701A80197010E94EF1B9B01AC01C60133
:1028F000B5010E946E190E945C1C68966CAF7DAF9A
:102900008EAF9FAF6897C156DF4F28813981CF596D
:10291000D040B901882777FD8095982F0E94D61A5C
:10292000A4962CAD3DAD4EAD5FADA4970E946D1940
:102930005B016C01C356DF4FA881B981CD59D040EE
:10294000BD01882777FD8095982F0E94D61AA09602
:102950002CAD3DAD4EAD5FADA0970E946D197B01D2
:102960008C01C601B501A60195010E94EF1B5B0118
:102970006C01C801B701A80197010E94EF1B9B01E0
:10298000AC01C601B5010E946E190E945C1C6496E0
:102990006CAF7DAF8EAF9FAF6497C556DF4FE881B8
:1029A000F981CB59D040BF01882777FD8095982FBA
:1029B0000E94D61AA4962CAD3DAD4EAD5FADA49746
:1029C0000E946D195B016C01B201882777FD80952B
:1029D000982F0E94D61AA0962CAD3DAD4EAD5FAD9E
:1029E000A0970E946D197B018C01C601B501A6015B
:1029F00095010E94EF1B5B016C01C801B701A801A2
:102A000097010E94EF1B9B01AC01C601B5010E941A
:102A10006E190E945C1C2B013C01FE01399688E076
:102A2000DF011D928A95E9F768966CAD7DAD8EAD9C
:102A30009FAD68976C962CAD3DAD4EAD5FAD6C977C
:102A40000E94341A88233CF468968CAD9DADAEADDF
:102A5000BFAD689706C06C968CAD9DADAEADBFADF9
:102A60006C977C018D0164966CAD7DAD8EAD9FAD94
:102A700064979701AD010E94341A882344F4649648
:102A80008CAD9DADAEADBFAD64977C018D01C30132
:102A9000B2019701A8010E94341A88231CF4530143
:102AA000420104C0C701D8014C015D016C966CADB8
:102AB0007DAD8EAD9FAD6C97A50194010E943B1A30
:102AC0000E94A31A6B017A87698768966CAD7DAD09
:102AD0008EAD9FAD6897A50194010E943B1A0E949C
:102AE000A31A7B017C876B8764966CAD7DAD8EAD40
:102AF0009FAD6497A50194010E943B1A0E94A31AFE
:102B00008B017E876D87C301B201A50194010E94EC
:102B10003B1A0E94A31ACF55DF4F79836883C15AAD
:102B2000D040788B6F87FE01B196FEABEDAB80E0B5
:102B300090E0A0E0B0E0C956DF4F88839983AA8374
:102B4000BB83C759D040CD56DF4F88839983AA8372
:102B5000BB83C359D040C157DF4F88839983AA8371
:102B6000BB83CF58D04091E09FAFC753DF4F18824F
:102B7000C95CD040C653DF4F1882CA5CD040C553F1
:102B8000DF4F1882CB5CD040C453DF4F1882CC5C3F
:102B9000D04022243324C601AA2797FDA095BA2F3E
:102BA000C354DF4F88839983AA83BB83CD5BD04016
:102BB000C701AA2797FDA095BA2FCF53DF4F88836F
:102BC0009983AA83BB83C15CD040C801AA2797FD23
:102BD000A095BA2FCB53DF4F88839983AA83BB83F9
:102BE000C55CD040F2C16096AEADBFAD6097A21596
:102BF000B30509F4C3C12A96EEADFFAD2A97EE0FD7
:102C0000FF1F29E030E02C0F3D1F2E0F3F1F2C9699
:102C10003FAF2EAF2C97CE01819628969FAF8EAFF7
:102C200028972E961FAE1EAE2E972E96AEADBFAD38
:102C30002E97A215B30509F481C16096EEADFFADE4
:102C40006097AE17BF0709F479C1C354DF4F68819D
:102C500079818A819B81CD5BD0400E94D61AADA933
:102C6000BEA92D913D914D915C910E946D197B0102
:102C70008C01CF53DF4F688179818A819B81C15C50
:102C8000D0400E94D61AEBADFCAD2081318142814B
:102C900053810E946D195B016C01CB53DF4F68813A
:102CA00079818A819B81C55CD0400E94D61A289682
:102CB000AEADBFAD28972D913D914D915C910E9495
:102CC0006D193B014C012C96EEADFFAD2C97808128
:102CD0009181CF55DF4F48805980C15AD040481A62
:102CE000590AC801B701A80197010E94EF1B7B0197
:102CF0008C01C601B501A60195010E94EF1B9B0145
:102D0000AC01C801B7010E946E197B018C01C4019E
:102D1000B301A40193010E94EF1B9B01AC01C80108
:102D2000B7010E946E197B018C01449CB001459C47
:102D3000700D549C700D1124882777FD8095982F75
:102D40000E94D61A9B01AC01C801B7010E946E19FE
:102D50002B013C01FFADFF23C9F4C753DF4F28818E
:102D6000C95CD040C653DF4F3881CA5CD040C553E0
:102D7000DF4F4881CB5CD040C453DF4F5881CC5CDF
:102D8000D0400E94341A88230CF0D8C03A8229829D
:102D900060962EAD3FAD60973C832B832E968EAD13
:102DA0009FAD2E979E838D8318861F82FE013196DC
:102DB0008824992420E030E080819181019709F4F2
:102DC00049012F5F3F4F329624303105A9F76C96A9
:102DD0006CAD7DAD8EAD9FAD6C972DEA37E24BE3C8
:102DE00051E40E943B1A24E93EE644E350E40E9489
:102DF000EF1B5B016C01880C991C880C991CC55455
:102E0000DF4FE881F981CB5BD040E80DF91D62818D
:102E10007381882777FD8095982F0E94D61AA096F7
:102E20002CAD3DAD4EAD5FADA0970E946D197B01FD
:102E30008C01C554DF4FA881B981CB5BD0408A0E8D
:102E40009B1EF40160817181882777FD8095982F02
:102E50000E94D61AA4962CAD3DAD4EAD5FADA497A1
:102E60000E946D199B01AC01C801B7010E94E119D4
:102E70002CE433EC40E550E40E946D1926EE39E76E
:102E800045ED5FE30E946E19C157DF4F6883798378
:102E90008A839B83CF58D04026EE39E745ED5FE328
:102EA0000E946D197B018C01C8010E94381AA6018D
:102EB00095010E94EF1B9B01AC01A4966CAD7DAD0A
:102EC0008EAD9FADA4970E946E19C956DF4F6883DF
:102ED00079838A839B83C759D040B701C8010E9478
:102EE000521CA60195010E94EF1B9B01AC01A0960C
:102EF0006CAD7DAD8EAD9FADA0970E946E19CD5685
:102F0000DF4F688379838A839B83C359D040D30181
:102F1000C201C753DF4F4882C95CD040C653DF4F60
:102F20009883CA5CD040C553DF4FA883CB5CD040A8
:102F3000C453DF4FB883CC5CD0401FAE2E962EAD6D
:102F40003FAD2E972F5F3F4F2E963FAF2EAF2E9760
:102F500028968EAD9FAD2897049628969FAF8EAF8A
:102F600028972C96AEADBFAD2C9712972C96BFAF7D
:102F7000AEAF2C972430310509F057CE6096EEADF8
:102F8000FFAD609731966096FFAFEEAF60972BADC7
:102F90003CAD2C5F3F4F3CAF2BAF2A968EAD9FAD23
:102FA0002A9701972A969FAF8EAF2A97349709F0F8
:102FB0001ACE0894211C311CADA9BEA91496BEAB33
:102FC000ADABB4E02B16310491F0EAE0F0E0E21989
:102FD000F3092A96FFAFEEAF2A979E012F5D3F4F70
:102FE0003CAF2BAF60961FAE1EAE6097FCCD8981C3
:102FF0009A812B813C81820F931F2D813E81820F0C
:10300000931F2F813885820F931F9E012F5F3F4FA3
:103010000997D9F5F90100E010E020E030E0808167
:103020009181039709F489012F5F3F4F3296243035
:103030003105A9F7000F111F000F111FC554DF4FF5
:10304000E881F981CB5BD040E00FF11F6081718195
:10305000882777FD8095982F0E94D61A9B01AC0196
:10306000C956DF4F688179818A819B81C759D040D9
:103070000E946D195B016C01C554DF4F88819981F5
:10308000CB5BD040080F191F3AC0F90100E010E0F7
:1030900020E030E080819181019709F489012F5F60
:1030A0003F4F329624303105A9F7000F111F000F52
:1030B000111FC554DF4FE881F981CB5BD040E00F91
:1030C000F11F60817181882777FD8095982F0E947C
:1030D000D61A9B01AC01C956DF4F688179818A817C
:1030E0009B81C759D0400E946D195B016C01C5548A
:1030F000DF4FE881F981CB5BD0400E0F1F1FD80155
:1031000012966D917C911397882777FD8095982F63
:103110000E94D61A9B01AC01CD56DF4F68817981A0
:103120008A819B81C359D0400E946D197B018C011B
:10313000C601B501A60195010E94EF1B5B016C0160
:10314000C801B701A80197010E94EF1B9B01AC01C8
:10315000C601B5010E946E190E945C1C9B01AC0166
:1031600060E070E088E691E40E943B1A1B012C01AC
:103170006091830170918401882777FD8095982F55
:103180000E94D61AC956DF4F288139814A815B8156
:10319000C759D0400E946D193B014C0160918501D7
:1031A00070918601882777FD8095982F0E94D61A06
:1031B000CD56DF4F288139814A815B81C359D04088
:1031C0000E946D197B018C01C401B301A40193011C
:1031D0000E94EF1B5B016C01C801B701A8019701B8
:1031E0000E94EF1B9B01AC01C601B5010E946E1944
:1031F0000E945C1C5B016C01C401B301A801970132
:103200000E94E1197B018C01C601B501A201910167
:103210000E94EF1B3B014C01C801B701C157DF4FB2
:10322000288139814A815B81CF58D0400E946D1935
:103230007B018C01C8010E94381A5B016C01B70147
:10324000C8010E94521C7B018C01C401B301A6017C
:1032500095010E94EF1B6093770170937801809332
:10326000790190937A01C401B301A80197010E94EA
:10327000EF1B60937B0170937C0180937D019093A1
:103280007E01C157DF4F88819981AA81BB81CF58C8
:10329000D04080937F0190938001A0938101B093EF
:1032A000820187E791E0CE52DF4F0FB6F894DEBF80
:1032B0000FBECDBFCF91DF911F910F91FF90EF9087
:1032C000DF90CF90BF90AF909F908F907F906F9046
:1032D0005F904F903F902F9008955058BB27AA279A
:1032E0000ED027C2F0D130F0F5D120F031F49F3F5D
:1032F00011F41EF4C0C10EF4E095E7FBB6C1E92F4E
:103300003AD280F3BA17620773078407950718F05B
:1033100071F49EF552C20EF4E0950B2EBA2FA02D3B
:103320000B01B90190010C01CA01A0011124FF2772
:10333000591B99F0593F50F4503E68F11A16F0406D
:10334000A22F232F342F4427585FF3CF469537956C
:103350002795A795F0405395C9F77EF41F16BA0B31
:10336000620B730B840BBAF09150A1F0FF0FBB1FDF
:10337000661F771F881FC2F70EC0BA0F621F731F28
:10338000841F48F4879577956795B795F7959E3F85
:1033900008F0B3CF9395880F08F09927EE0F979513
:1033A0008795089590D158F080E891E009F49EEF58
:1033B00091D128F040E851E059F45EEF09C05BC1BB
:1033C000FCC1E92FE078D7D168F3092E052AC1F3B3
:1033D000261737074807590738F00E2E07F8E0255B
:1033E00069F0E025E0640AC0EF6307F8009407FA8B
:1033F000DB01B9019D01DC01CA01AD01EF934AD0A7
:1034000098D10AD05F91552331F02BED3FE049E48C
:1034100050FD49EC63CF0895DF93DD27B92FBF77C7
:1034200040E85FE31616170648075B0710F4D92F2C
:10343000CFD19F938F937F936F937CD2EEE2F1E095
:103440001DD177D12F913F914F915F91D4D1DD2341
:1034500049F09058A2EA2AED3FE049EC5FE3D078CA
:103460005D274DDFDF9165C1DCD008F481E0089570
:1034700039D1E3956FC10CD05CC12CD140F023D180
:1034800030F021F45F3F19F0F0C0511197C1F3C043
:1034900072D198F39923C9F35523B1F3951B550BBA
:1034A000BB27AA2762177307840738F09F5F5F4F17
:1034B000220F331F441FAA1FA9F333D00E2E3AF058
:1034C000E0E830D091505040E695001CCAF729D072
:1034D000FE2F27D0660F771F881FBB1F26173707C1
:1034E0004807AB07B0E809F0BB0B802DBF01FF27F1
:1034F00093585F4F2AF09E3F510568F0B6C05EC1F9
:103500005F3FECF3983EDCF3869577956795B7952A
:10351000F7959F5FC9F7880F911D9695879597F945
:103520000895E1E0660F771F881FBB1F62177307BE
:103530008407BA0720F0621B730B840BBA0BEE1FD3
:1035400088F7E095089504D06894B11137C10895C3
:103550001AD188F09F5790F0B92F9927B751A0F052
:10356000D1F0660F771F881F991F1AF0BA95C9F717
:1035700012C0B13081F021D1B1E008951EC1672F92
:10358000782F8827B85F39F0B93FCCF386957795C7
:103590006795B395D9F73EF49095809570956195B0
:1035A0007F4F8F4F9F4F0895E89409C097FB3EF4DB
:1035B00090958095709561957F4F8F4F9F4F992380
:1035C000A9F0F92F96E9BB279395F69587957795FE
:1035D0006795B795F111F8CFFAF4BB0F11F460FFBE
:1035E0001BC06F5F7F4F8F4F9F4F16C0882311F016
:1035F00096E911C0772321F09EE8872F762F05C02A
:10360000662371F096E8862F70E060E02AF09A95C4
:10361000660F771F881FDAF7880F9695879597F9B9
:103620000895990F0008550FAA0BE0E8FEEF161653
:103630001706E807F907C0F012161306E407F507A6
:1036400098F0621B730B840B950B39F40A2661F01A
:10365000232B242B252B21F408950A2609F4A140BD
:10366000A6958FEF811D811D089597F99F6780E8CA
:1036700070E060E008959FEF80EC0895DF93CF93B2
:103680001F930F93FF92EF92DF927B018C0168945E
:1036900005C0DA2EEF01AFD0FE01E894A591259187
:1036A000359145915591AEF3EF0129DEFE01970169
:1036B000A801DA9479F7DF90EF90FF900F911F91B6
:1036C000CF91DF91089500240A9416161706180664
:1036D0000906089500240A94121613061406050616
:1036E0000895C9CF50D0E8F3E894E0E0BB279F5796
:1036F000F0F02AED3FE049EC06C0EE0FBB0F661F6D
:10370000771F881F28F0B23A62077307840728F0F2
:10371000B25A620B730B840BE3959A9572F780385B
:1037200030F49A95BB0F661F771F881FD2F7904819
:1037300006C1092E0394000C11F4882352F0BB0F2C
:1037400040F4BF2B11F460FF04C06F5F7F4F8F4FB9
:103750009F4F0895EF93E0FF06C0A2EA2AED3FE0F5
:1037600049EC5FEBCCDDE5DF0F90039401FC905852
:10377000EBE5F1E0F7C057FD9058440F551F59F0A5
:103780005F3F71F04795880F97FB991F61F09F3F4E
:1037900079F087950895121613061406551FF2CF77
:1037A0004695F1DF08C0161617061806991FF1CFC7
:1037B00086957105610508940895E894BB276627EE
:1037C0007727CB0197F908952CDF08F48FEF089540
:1037D0009B01AC0160E070E080E89FE34CCE0BD031
:1037E000A8CF71DF28F076DF18F0952309F03DCFE0
:1037F00042CF1124E3CFBFDFA0F3959FD1F3950F04
:1038000050E0551F629FF001729FBB27F00DB11D64
:10381000639FAA27F00DB11DAA1F649F6627B00DF4
:10382000A11D661F829F2227B00DA11D621F739FDD
:10383000B00DA11D621F839FA00D611D221F749FEB
:103840003327A00D611D231F849F600D211D822F32
:10385000762F6A2F11249F5750408AF0E1F0882379
:103860004AF0EE0FFF1FBB1F661F771F881F915086
:103870005040A9F79E3F510570F0F7CE9FCF5F3FB4
:10388000ECF3983EDCF3869577956795B795F795B9
:10389000E7959F5FC1F7FE2B880F911D9695879541
:1038A00097F908959F931EDF0F9007FCEE5F52CFAC
:1038B00011F40EF4E0CE41C066DFD0F39923D9F3C2
:1038C000CEF39F57550B87FF46D00024A0E640EA71
:1038D000900180585695979528F4805C660F771F65
:1038E000881F20F026173707480730F4621B730B38
:1038F000840B202931294A2BA6951794079420255B
:1039000031254A2758F7660F771F881F20F02617A2
:103910003707480730F4620B730B840B200D311D01
:10392000411DA09581F7B901842F9158880F969574
:10393000879508959B01AC0152CF9F3F31F0915084
:1039400020F4879577956795B795880F911D969583
:10395000879597F9089591505040660F771F881FFB
:10396000D2F708959F938F937F936F93FF93EF9375
:103970009B01AC0134DFEF91FF9180DE2F913F91ED
:103980004F915F912CCF97FB092E07260AD077FD28
:1039900004D00CD006D000201AF4709561957F4FAA
:1039A0000895F6F7909581959F4F0895AA1BBB1B2C
:1039B00051E107C0AA1FBB1FA617B70710F0A61B2F
:1039C000B70B881F991F5A95A9F780959095BC0150
:1039D000CD010895FB019F01E8944230C4F04532C7
:1039E000B4F44A3029F497FB1EF4909581959F4FCB
:1039F000642F77270E94D61C805D8A330CF0895D86
:103A00008193CB010097A1F716F45DE251931082E8
:103A1000C9010C947A1DFA01CF93FF93EF932230E2
:103A200044F1253234F5C22FE894CA3049F497FBAB
:103A30003EF490958095709561957F4F8F4F9F4F85
:103A40002C2F332744275527FF93EF930E948A1D7D
:103A5000EF91FF91605D6A330CF0695D6193B9018C
:103A6000CA01605070408040904051F716F4CDE29A
:103A7000C19310828F919F91CF910C947A1DFA017E
:103A8000CF93FF93EF932230CCF02532BCF4C22FBA
:103A90002C2F332744275527FF93EF930E948A1D2D
:103AA000EF91FF91605D6A330CF0695D6193B9013C
:103AB000CA01605070408040904051F710828F9151
:103AC0009F91CF910C947A1DFB019F01423074F0BD
:103AD000453264F4642F77270E94D61C805D8A33B8
:103AE0000CF0895D8193CB010097A1F71082C90189
:103AF0000C947A1DDC01FC01672F71917723E1F7AB
:103B0000329704C07C916D9370836291AE17BF07AA
:103B1000C8F30895A1E21A2EAA1BBB1BFD010DC01C
:103B2000AA1FBB1FEE1FFF1FA217B307E407F5076D
:103B300020F0A21BB30BE40BF50B661F771F881F49
:103B4000991F1A9469F760957095809590959B01DF
:0C3B5000AC01BD01CF010895F894FFCF37
:103B5C000124010000C8C20000C8C20100E100003D
:103B6C000000080000684123DB0B41000068C179AC
:103B7C00E91E4000000000E17A3A41000000000C10
:043B8C000229C10049
:00000001FF
