:100000000C9456000C9473000C9473000C945301E0
:100010000C9473000C9473000C9473000C94730094
:100020000C9473000C9473000C9473000C94730084
:100030000C9473000C9473000C9473000C94730074
:100040000C9473000C9473000C9473000C94730064
:100050000C9473000C9473000C9473000C94730054
:100060000C9473000C9473000C9473000C94730044
:100070000C9473000C9473000C9473000C94730034
:100080000C9473000C9473000C9473000C94730024
:100090000C9473000C9473000C9473000C94730014
:1000A0000C9473000C9473000C94730011241FBE05
:1000B000CFEFDAE0DEBFCDBF11E0A0E0B1E0EEE9C6
:1000C000F5E002C005900D92A430B107D9F711E018
:1000D000A4E0B1E001C01D92AD30B107E1F70E948C
:1000E00075000C94CD020C9400000E9486000E94C2
:1000F0001B018823E1F30E941E01FC0180818C36E4
:10010000B1F76E9A76986A9A7298F1CFE1E6F0E0CC
:1001100080E88083108285BF85BFE1E8F0E08081C0
:100120008B7F808380818D7F8083808181608083CD
:100130008FEF9FEF9093870080938600808180618E
:100140008083808188608083E0E8F0E08081826045
:100150008083808181608083259A8081806880830C
:10016000808180648083269A808180628083808100
:10017000806180838081877F808380818B7F808383
:10018000109289001092880010928B0010928A00C1
:100190003E9A3F9AE0910501F09106018CE680833A
:1001A00081E080930401089540E050E060E971E04F
:1001B0000AC020E137E2FB013197F1F721503040CE
:1001C000D1F74F5F5F4F481759079CF308959C0183
:1001D00097FF02C0469801C0469AB901882777FD6B
:1001E0008095982F2FEF3FEF40E050E00E94AE0245
:1001F000709389006093880008959C0197FF02C066
:10020000479801C0479AB901882777FD8095982FB4
:100210002FEF3FEF40E050E00E94AE0270938B0062
:1002200060938A000895909306018093050181E010
:1002300080930401089580910401089510920401AF
:10024000809105019091060108959C01462F862F0B
:10025000B9010E9411020895CF93DF93EC018091C0
:10026000070190910801849729F084E2BE0144E2DD
:100270000E9411028091070190910801859729F051
:1002800085E2BE0145E20E94110280910701909132
:100290000801869729F086E2BE0146E20E9411021B
:1002A000DF91CF9108951F920F920FB60F921124F4
:1002B0000F931F932F933F934F935F936F937F936E
:1002C0008F939F93AF93BF93EF93FF93DF93CF935E
:1002D0000F92CDB7DEB78E010F5F1F4FC80160913F
:1002E00009010E94C201C8010E9413010F90CF9121
:1002F000DF91FF91EF91BF91AF919F918F917F918E
:100300006F915F914F913F912F911F910F910F909E
:100310000FBE0F901F901895CF92DF92EF92FF9231
:100320000F931F93C82E192FD62E072F7A010E94E4
:10033000B101C0920B0110930C01D0920701009300
:100340000801E0920901F0920A018C2D6D2D4E2DCD
:100350000E945E021F910F91FF90EF90DF90CF906F
:100360000895589A599A5A9A8CE08093B800E9E611
:10037000F0E080818062808380818F7E8083EA9A32
:10038000789408959C0184EA8093BC008091BC001D
:1003900087FFFCCF81E58093BB0084E88093BC009D
:1003A0008091BC0087FFFCCF8091B900887F8834A2
:1003B00091F084EC8093BC008091BC0087FFFCCF5F
:1003C0008091BB00861739F4A0E0B0E070E0615086
:1003D000704094EC12C084E98093BC0080E00895E2
:1003E0009093BC008091BC0087FFFCCF8091BB0044
:1003F000F901EA0FFB1F80831196A617B70784F354
:1004000084E88093BC008091BC0087FFFCCF809182
:10041000BB00A20FB31F8C9384E98093BC0081E0E2
:100420000895982FF89484EA8093BC008091BC00D2
:1004300087FFFCCF80E58093BB0084E88093BC00FD
:100440008091BC0087FFFCCF8091B900887F80320B
:1004500031F484E98093BC00789480E0089583E0CF
:100460008093BB0084E88093BC008091BC0087FF30
:10047000FCCF9093BB0084E88093BC008091BC00CB
:1004800087FFFCCF20E030E050E094E80EC0FB0195
:10049000E20FF31F80818093BB009093BC0080919A
:1004A000BC0087FFFCCF2F5F3F4F241735077CF33D
:1004B00084E98093BC00789481E00895FF920F93C3
:1004C0001F93182F062FF42E0E94B10184EA809307
:1004D000BC008091BC0087FFFCCF80E58093BB000F
:1004E00084E88093BC008091BC0087FFFCCF8091A2
:1004F000B900887F803229F484E98093BC0080E0D1
:1005000029C081E08093BB0084E88093BC00809187
:10051000BC0087FFFCCF1093BB0084E88093BC0035
:100520008091BC0087FFFCCF0093BB0084E88093E0
:10053000BC008091BC0087FFFCCFF092BB0084E838
:100540008093BC008091BC0087FFFCCF84E980933E
:10055000BC0081E01F910F91FF900895629FD00130
:10056000739FF001829FE00DF11D649FE00DF11D6E
:10057000929FF00D839FF00D749FF00D659FF00D1D
:100580009927729FB00DE11DF91F639FB00DE11D0A
:0E059000F91FBD01CF0111240895F894FFCF8B
:04059E000124010033
:00000001FF
