:100000000C9423010C9440010C9440010C94211099
:100010000C9440010C9440010C9440010C9440015C
:100020000C9440010C9440010C9435170C947017FB
:100030000C9440010C9440010C9440010C9440013C
:100040000C9440010C9440010C9440010C9440012C
:100050000C9440010C9440010C9440010C9440011C
:100060000C9440010C9440010C9440010C9440010C
:100070000C9440010C9440010C9440010C944001FC
:100080000C9440010C9440010C9440010C944001EC
:100090000C9440010C9440010C9440010C944001DC
:1000A0000C9440010C9440010C944001C916C616F2
:1000B000C316C016BD16BA16B716B416B116AE16CC
:1000C000AB16A816A516A2169F169C16991696167C
:1000D000931690168D168A168716841681167E162C
:1000E0007B167816751672166F166C1669166616DC
:1000F000631660165D165A165716541651164E168C
:100100004B164816451642163F163C16391636163B
:10011000331630162D162A162716241621161E16EB
:100120001B161816151612160F160C160916084A65
:10013000D73B3BCE016E84BCBFFDC12F3D6C7431FB
:100140009ABD56833DDA3D00C77F11BED9E4BB4C52
:100150003E916BAAAABE000000803F05A84CCDB21C
:10016000D44EB93836A9020C50B9918688083CA6FD
:10017000AAAA2ABE000000803F0A00546865746184
:10018000203D20000A0059203D20000A0058203D53
:10019000200000010000C6011200020000D8014347
:1001A000000300001B0204010309041F02120203E2
:1001B0000904330206030309043B02080001C112CB
:1001C0000180360181361201000202000010C016C3
:1001D0007A0400010102030109024300020100C088
:1001E000320904000001020201000524001001058B
:1001F00024010101042402060524060001070582EA
:100200000310004009040100020A00000007050372
:1002100002400000070584024000000403090412A4
:10022000034A002E0020004600690065006E00654C
:1002300000000006034D00320000000803340031C6
:1002400000300000000011241FBECFEFDAE0DEBF57
:10025000CDBF11E0A0E0B1E0E2E5FFE302C0059010
:100260000D92A034B107D9F711E0A0E4B1E001C0CC
:100270001D92A43BB107E1F70E9442010C94A71F15
:100280000C9400000E949C1380E090E008959093ED
:10029000600180935F017093710160937001089514
:1002A0002F923F924F925F926F927F928F929F9286
:1002B000AF92BF92CF92DF92EF92FF920F931F9374
:1002C000962E872E782E692ED22EC32EB42EA52ED2
:1002D0005E2C4F2C302E212E622F732F842F952FC2
:1002E000292D382D472D562D0E94461C88232CF48D
:1002F000ED2CFC2C0B2D1A2D04C0E92CF82C072D0D
:10030000162D652D742D832D922D9701A8010E9425
:10031000461C882324F4E52CF42C032D122DB70160
:10032000C8011F910F91FF90EF90DF90CF90BF9089
:10033000AF909F908F907F906F905F904F903F9085
:100340002F9008952F923F924F925F926F927F92DB
:100350008F929F92AF92BF92CF92DF92EF92FF92D5
:100360000F931F93DF93CF9300D000D0CDB7DEB7AC
:10037000562E472E382E292E922E832E742E652E21
:10038000E982FA820B831C83622F732F842F952FAF
:10039000252D342D432D522D0E94461C88232CF4EC
:1003A000E92CF82C072D162D04C0E52CF42C032D78
:1003B000122D69817A818B819C819701A8010E940D
:1003C000461C882324F4E980FA800B811C81B50146
:1003D000C6019701A8010E94461C882314F47501E8
:1003E0008601B701C8010F900F900F900F90CF9129
:1003F000DF911F910F91FF90EF90DF90CF90BF9012
:10040000AF909F908F907F906F905F904F903F90B4
:100410002F9008952F923F924F925F926F927F920A
:100420008F929F92AF92BF92CF92DF92EF92FF9204
:100430000F931F93DF93CF93CDB7DEB7C05FD0404C
:100440000FB6F894DEBF0FBECDBFCD52DF4F9983FC
:100450008883C35DD040CB52DF4F79836883C55D0D
:10046000D040C952DF4F59834883C75DD040C7523F
:10047000DF4F39832883C95DD040DC010D911C9189
:1004800011971296ED90FC90139716968D909C9074
:10049000179718966D907C9019971C96ED91FC918A
:1004A0001D97CB55DF4FF983E883C55AD0401E9680
:1004B0002D913C911F97CD55DF4F39832883C35A27
:1004C000D04052968D919C915397CF55DF4F998391
:1004D0008883C15AD04054960D90BC91A02DC1562E
:1004E000DF4FB983A883CF59D040FE01319688E011
:1004F000DF011D928A95E9F7CF55DF4FE881F98139
:10050000C15AD040EF2B09F0FCC6C156DF4F2881FD
:100510003981CF59D040232B09F0F3C6CB55DF4F9B
:1005200068817981C55AD040680D791D600F711FAF
:10053000882777FD8095982F0E94E81C20E030E006
:1005400040E450E40E944D1CC257DF4F688379831A
:100550008A839B83CE58D040B3016E0D7F1DCD554D
:10056000DF4F88819981C35AD040680F791F88274F
:1005700077FD8095982F0E94E81C20E030E040E451
:1005800050E40E944D1CC657DF4F688379838A83ED
:100590009B83CA58D040B801882777FD8095982F53
:1005A0000E94E81CC257DF4F288139814A815B8154
:1005B000CE58D0400E947F1B5B016C01B701882799
:1005C00077FD8095982F0E94E81CC657DF4F288141
:1005D00039814A815B81CA58D0400E947F1B7B01D0
:1005E0008C01C601B501A60195010E94FD1D5B01AC
:1005F0006C01C801B701A80197010E94FD1D9B0174
:10060000AC01C601B5010E94801B0E946A1ECA5738
:10061000DF4F688379838A839B83C658D040B401B7
:10062000882777FD8095982F0E94E81CC257DF4FDE
:10063000288139814A815B81CE58D0400E947F1B3E
:100640005B016C01B301882777FD8095982F0E948C
:10065000E81CC657DF4F288139814A815B81CA581F
:10066000D0400E947F1B7B018C01C601B501A60111
:1006700095010E94FD1D5B016C01C801B701A80135
:1006800097010E94FD1D9B01AC01C601B5010E94AE
:10069000801B0E946A1ECE57DF4F688379838A834E
:1006A0009B83C258D040CB55DF4FA881B981C55A32
:1006B000D040BD01882777FD8095982F0E94E81CC7
:1006C000C257DF4F288139814A815B81CE58D040A3
:1006D0000E947F1B5B016C01CD55DF4FE881F981E2
:1006E000C35AD040BF01882777FD8095982F0E947C
:1006F000E81CC657DF4F288139814A815B81CA587F
:10070000D0400E947F1B7B018C01C601B501A60170
:1007100095010E94FD1D5B016C01C801B701A80194
:1007200097010E94FD1D9B01AC01C601B5010E940D
:10073000801B0E946A1E5B016C01CE57DF4F6881EF
:1007400079818A819B81C258D040CA57DF4F288166
:1007500039814A815B81C658D0400E94461C88235B
:100760004CF4CE57DF4F88819981AA81BB81C25852
:10077000D04008C0CA57DF4F88819981AA81BB81C8
:10078000C658D0407C018D01C601B5019701AD016D
:100790000E94461C88231CF48601750104C0C70111
:1007A000D8017C018D01CA57DF4F688179818A8128
:1007B0009B81C658D040A80197010E944D1CC1538F
:1007C000DF4F688379838A839B83CF5CD040CE5789
:1007D000DF4F688179818A819B81C258D040A8010E
:1007E00097010E944D1CC553DF4F688379838A832C
:1007F0009B83CB5CD040C601B501A80197010E9444
:100800004D1CC953DF4F688379838A839B83C75C00
:10081000D040DE011996E0E1F1E080E101900D9217
:100820008150E1F7DE015996E0E0F1E080E10190CE
:100830000D928150E1F79E01275D3F4F3CAF2BAFFA
:1008400080E090E0A0E0B0E0C556DF4F8883998358
:10085000AA83BB83CB59D040C956DF4F8883998385
:10086000AA83BB83C759D040CD56DF4F8883998375
:10087000AA83BB83C359D04091E0CE56DF4F988303
:10088000C259D040C551DF4F1882CB5ED040C45111
:10089000DF4F1882CC5ED040C351DF4F1882CD5E4F
:1008A000D040C251DF4F1882CE5ED040C058DF4FDB
:1008B00019821882C058D040DE01D996C151DF4F4D
:1008C000B983A883CF5ED040FEC4C258DF4FE88111
:1008D000F981CE57D040C058DF4F28813981C058A8
:1008E000D040E217F30709F4BEC48DAD9EAD880F6A
:1008F000991F880F991FA9E2B0E0AC0FBD1FA80F88
:10090000B91F6096BFAFAEAF6097EDADFEAD2E964E
:10091000FFAFEEAF2E979E01275D3F4F2C963FAF66
:100920002EAF2C97EE961FAE1EAEEE97C258DF4F3D
:1009300088819981CE57D0400196C152DF4F99836B
:100940008883CF5DD040EE96AEADBFADEE97C05878
:10095000DF4FE881F981C058D040AE17BF0709F4D6
:100960005AC4C258DF4F28813981CE57D040A217D0
:10097000B30709F450C40F2EF0E0EF2EF0E0FF2E85
:10098000F0E00F2FF0E01F2FF02D570168016624D3
:100990007724882499242E968EAD9FAD2E976816C5
:1009A000790601F1E9E0F0E0EC0FFD1FE80DF91D1B
:1009B000C801B70120813181428153810E94801B8F
:1009C0007B018C01E9E1F0E0EC0FFD1FE80DF91D62
:1009D000C601B50120813181428153810E94801B73
:1009E0005B016C010894611C711CA4E0B0E08A0EEC
:1009F0009B1EB4E06B16710471F6C801B70120E0CC
:100A000030E040E450E40E944D1C27966CAF7DAF6F
:100A10008EAF9FAF2797C601B50120E030E040E4DC
:100A200050E40E944D1C1B012C0160E070E080E04E
:100A300090E027962CAD3DAD4EAD5FAD27970E945F
:100A40007F1BCD53DF4F688379838A839B83C35C8D
:100A5000D0409B01AC010E94FD1D5B016C0160E078
:100A600070E088E691E4A20191010E947F1BC154CD
:100A7000DF4F688379838A839B83CF5BD0409B0160
:100A8000AC010E94FD1D9B01AC01C601B5010E9495
:100A9000801B0E946A1EEC966CAF7DAF8EAF9FAF3D
:100AA000EC976CE072E089E291EC27962CAD3DADBD
:100AB0004EAD5FAD27970E947F1BC554DF4F688303
:100AC00079838A839B83CB5BD04069E779EE8EE1A3
:100AD00090E4A20191010E947F1BC954DF4F6883FB
:100AE00079838A839B83C75BD040C554DF4F68817D
:100AF00079818A819B81CB5BD0409B01AC010E94B4
:100B0000FD1D7B018C01C954DF4F688179818A8189
:100B10009B81C75BD0409B01AC010E94FD1D9B01E6
:100B2000AC01C801B7010E94801B0E946A1EE896B2
:100B30006CAF7DAF8EAF9FAFE89760E070E088E666
:100B400091ECA20191010E947F1B9B01AC010E94CC
:100B5000FD1D9B01AC01C601B5010E94801B0E94D6
:100B60006A1EC951DF4F6883C75ED040C851DF4F4E
:100B70007883C85ED040C751DF4F8883C95ED040BC
:100B8000C651DF4F9883CA5ED04061EE7AE78AE3B0
:100B900091E427962CAD3DAD4EAD5FAD27970E94F9
:100BA0007F1B7B018C0163E27BED8BE091E4A20172
:100BB00091010E947F1B5B016C01C801B701A80174
:100BC00097010E94FD1D7B018C01C601B501A601A4
:100BD00095010E94FD1D9B01AC01C801B7010E9457
:100BE000801B0E946A1ED62EC72E782E692EEC9688
:100BF0008CAD9DADAEADBFADEC9789A79AA7ABA765
:100C0000BCA7E8968CAD9DADAEADBFADE8978DA706
:100C10009EA7AFA7B8ABC951DF4F8881C75ED04050
:100C2000C851DF4F9881C85ED040C751DF4FA881BF
:100C3000C95ED040C651DF4FB881CA5ED04089AB93
:100C40009AABABABBCAB8D2D9C2DA72DB62D8DAB30
:100C50009EABAFABB8AFABADBCAD8D909D90AD9042
:100C6000BC90E8966CAD7DAD8EAD9FADE897EC96EF
:100C70002CAD3DAD4EAD5FADEC970E94461C882378
:100C80003CF4E8968CAD9DADAEADBFADE89706C027
:100C9000EC968CAD9DADAEADBFADEC977C018D01FA
:100CA000C951DF4F6881C75ED040C851DF4F78819E
:100CB000C85ED040C751DF4F8881C95ED040C65161
:100CC000DF4F9881CA5ED0409701AD010E94461C5B
:100CD0008823A4F4C951DF4FE880C75ED040C851D3
:100CE000DF4FF880C85ED040C751DF4F0881C95E32
:100CF000D040C651DF4F1881CA5ED0406D2D7C2D8B
:100D0000872D962D9701A8010E94461C88232CF45C
:100D10008D2D9C2DA72DB62D02C0C701D8016C01C9
:100D20007D016096EEADFFAD609780829182A282D8
:100D3000B3828E01075D1F4FD8016D917D918D911A
:100D40009C91A70196010E944D1CF801619371933B
:100D5000819391938F01C151DF4F28813981CF5EFB
:100D6000D040E217F30741F7C153DF4F6881798123
:100D70008A819B81CF5CD040ABADBCAD2D913D91C4
:100D80004D915C910E947F1B7B018C01C553DF4F0D
:100D9000688179818A819B81CB5CD040E9ADFAADD5
:100DA00020813181428153810E947F1B5B016C0154
:100DB000C953DF4F688179818A819B81C75CD040AC
:100DC0002C96AEADBFAD2C972D913D914D915C9180
:100DD0000E947F1B3B014C01C801B701A80197018C
:100DE0000E94FD1D7B018C01C601B501A601950184
:100DF0000E94FD1D9B01AC01C801B7010E94801B30
:100E00007B018C01C401B301A40193010E94FD1D6B
:100E10009B01AC01C801B7010E94801BE4966CAF36
:100E20007DAF8EAF9FAFE497CE56DF4FB881C259EA
:100E3000D040BB23C9F4C551DF4F2881CB5ED040E1
:100E4000C451DF4F3881CC5ED040C351DF4F488161
:100E5000CD5ED040C251DF4F5881CE5ED0400E945F
:100E6000461C88230CF0D7C1CF51DF4FE881F981B0
:100E7000C15ED040FA83E983C152DF4F28813981B6
:100E8000CF5DD0403C832B83EE968EAD9FADEE9729
:100E900001969E838D830197EE969FAF8EAFEE975E
:100EA00018861F822E96AEADBFAD2E97119709F012
:100EB00066C000E010E02230310511F401E010E0DE
:100EC00068018D819E81029719F402E0C02ED12C19
:100ED000C201B101905827962CAD3DAD4EAD5FAD2E
:100EE000279750580E94F31B7B018C01C954DF4F98
:100EF000688179818A819B81C75BD040C554DF4F6F
:100F0000288139814A815B81CB5BD0400E94F31BF1
:100F10009B01AC01C801B7010E947F1BE0966CAF3A
:100F20007DAF8EAF9FAFE09727966CAD7DAD8EAD58
:100F30009FAD27979B01AC010E94FD1D7B018C0199
:100F4000C201B101A20191010E94FD1D9B01AC01F2
:100F5000C801B7010E94801B0E946A1E7B018C01A0
:100F6000CE57DF4F688179818A819B81C258D040FA
:100F7000E8962CAD3DAD4EAD5FADE8976AC000E0A0
:100F800010E0C152DF4FE881F981CF5DD040319749
:100F900011F401E010E068018D819E81019719F440
:100FA00012E0C12ED12CC201B101905827962CAD70
:100FB0003DAD4EAD5FAD279750580E94F31B7B01AE
:100FC0008C01C154DF4F688179818A819B81CF5B1D
:100FD000D040CD53DF4F288139814A815B81C35C8A
:100FE000D0400E94F31B9B01AC01C801B7010E94D5
:100FF0007F1BE0966CAF7DAF8EAF9FAFE0972796DB
:101000006CAD7DAD8EAD9FAD27979B01AC010E946D
:10101000FD1D7B018C01C201B101A20191010E9461
:10102000FD1D9B01AC01C801B7010E94801B0E94FD
:101030006A1E7B018C01CA57DF4F688179818A81E2
:101040009B81C658D040EC962CAD3DAD4EAD5FAD0A
:10105000EC970E944D1CA80197010E94FD1DAC96C3
:101060006CAF7DAF8EAF9FAFAC97C201B10190580E
:1010700027962CAD3DAD4EAD5FAD279750580E94E1
:10108000F31B4B015C018601000F111F0C0D1D1D90
:10109000F8013196EE0FFF1FCD52DF4F28813981C5
:1010A000C35DD040E20FF31F60817181882777FD17
:1010B0008095982F0E94E81CC657DF4F2881398100
:1010C0004A815B81CA58D0400E947F1B6B017C0122
:1010D000000F111FCD52DF4F88819981C35DD04031
:1010E000080F191FD8016D917C91882777FD809595
:1010F000982F0E94E81CC257DF4F288139814A810E
:101100005B81CE58D0400E947F1B9B01AC01C70180
:10111000B6010E94F31BE0962CAD3DAD4EAD5FAD28
:10112000E0970E94801BA50194010E947F1BCD5671
:10113000DF4F688379838A839B83C359D040C5017D
:10114000B401CD56DF4F288139814A815B81C35973
:10115000D0400E94801B7B018C01C8010E944A1C68
:10116000AC962CAD3DAD4EAD5FADAC970E94FD1D74
:101170009B01AC01C257DF4F688179818A819B81D5
:10118000CE58D0400E94801BC556DF4F68837983BC
:101190008A839B83CB59D040B701C8010E94601E4F
:1011A000AC962CAD3DAD4EAD5FADAC970E94FD1D34
:1011B0009B01AC01C657DF4F688179818A819B8191
:1011C000CA58D0400E94801BC956DF4F688379837C
:1011D0008A839B83C759D040E4968CAD9DADAEAD5C
:1011E000BFADE497C551DF4F8883CB5ED040C4517B
:1011F000DF4F9883CC5ED040C351DF4FA883CD5ED4
:10120000D040C251DF4FB883CE5ED040CE56DF4FC4
:101210001882C259D040EE96EEADFFADEE973196F2
:10122000EE96FFAFEEAFEE972E962EAD3FAD2E971A
:10123000215030402E963FAF2EAF2E972C968EAD7C
:101240009FAD2C9704962C969FAF8EAF2C976096EF
:10125000AEADBFAD609714976096BFAFAEAF60976D
:10126000349709F070CBC258DF4FE881F981CE572F
:10127000D0403196C258DF4FF983E883CE57D04033
:101280002DAD3EAD215030403EAF2DAF89AD9AAD72
:1012900004969AAF89AF349709F017CBC058DF4F47
:1012A000A881B981C058D0401196C058DF4FB9838A
:1012B000A883C058D040EBADFCAD3496FCAFEBAF8B
:1012C000149709F49DC42AE030E0C058DF4F8881AC
:1012D0009981C058D040281B390B3EAF2DAFDE019D
:1012E0009996BAAFA9AFC258DF4F19821882CE576C
:1012F000D0400196CF51DF4F99838883C15ED040A3
:10130000E4CAFE01B99680E1DF011D928A95E9F7F2
:1013100085E89CE1AAE8BFE389A79AA7ABA7BCA789
:1013200080E090E0A0E8BFE38DA79EA7AFA7B8AB91
:1013300084E89CE5ACECBFE389AB9AABABABBCAB50
:1013400085E190E9A7E9BFE38DAB9EABAFABB8AF4A
:10135000CB55DF4F68817981C55AD040680D791D22
:10136000600F711FCF55DF4FE881F981C15AD0401E
:101370006E0F7F1F882777FD8095982F0E94E81CAD
:1013800020E030E040E85EE30E94FD1DA8966CAFCF
:101390007DAF8EAF9FAFA897B3016E0D7F1DCD556A
:1013A000DF4F28813981C35AD040620F731FC15665
:1013B000DF4F88819981CF59D040680F791F8827E6
:1013C00077FD8095982F0E94E81C20E030E040E8EF
:1013D0005EE30E94FD1DA4966CAF7DAF8EAF9FAF04
:1013E000A497B801882777FD8095982F0E94E81C64
:1013F000A8962CAD3DAD4EAD5FADA8970E947F1B6A
:101400005B016C01B701882777FD8095982F0E94BA
:10141000E81CA4962CAD3DAD4EAD5FADA4970E94E7
:101420007F1B7B018C01C601B501A60195010E94BD
:10143000FD1D5B016C01C801B701A80197010E9465
:10144000FD1D9B01AC01C601B5010E94801B0E94DD
:101450006A1EA0966CAF7DAF8EAF9FAFA097B40110
:10146000882777FD8095982F0E94E81CA8962CADC0
:101470003DAD4EAD5FADA8970E947F1B5B016C0137
:10148000B301882777FD8095982F0E94E81CA496C9
:101490002CAD3DAD4EAD5FADA4970E947F1B7B018F
:1014A0008C01C601B501A60195010E94FD1D5B01DD
:1014B0006C01C801B701A80197010E94FD1D9B01A5
:1014C000AC01C601B5010E94801B0E946A1E1B016F
:1014D0002C01CB55DF4FA881B981C55AD040BD0141
:1014E000882777FD8095982F0E94E81CA8962CAD40
:1014F0003DAD4EAD5FADA8970E947F1B5B016C01B7
:10150000CD55DF4FE881F981C35AD040BF0188270C
:1015100077FD8095982F0E94E81CA4962CAD3DADD8
:101520004EAD5FADA4970E947F1B7B018C01C6016D
:10153000B501A60195010E94FD1D5B016C01C8016A
:10154000B701A80197010E94FD1D9B01AC01C601D6
:10155000B5010E94801B0E946A1E3B014C01CF55C1
:10156000DF4F28813981C15AD040B901882777FDE2
:101570008095982F0E94E81CA8962CAD3DAD4EADED
:101580005FADA8970E947F1B5B016C01C156DF4FC6
:10159000A881B981CF59D040BD01882777FD8095BA
:1015A000982F0E94E81CA4962CAD3DAD4EAD5FADCA
:1015B000A4970E947F1B7B018C01C601B501A60187
:1015C00095010E94FD1D5B016C01C801B701A801D6
:1015D00097010E94FD1D9B01AC01C601B5010E944F
:1015E000801B0E946A1E5B016C01C201B101A096C2
:1015F0002CAD3DAD4EAD5FADA0970E94461C88233B
:101600001CF4D201C10106C0A0968CAD9DADAEAD5B
:10161000BFADA0977C018D01C401B3019701AD015D
:101620000E94461C882324F4D401C30173018D0158
:10163000C601B5019701A8010E94461C88231CF42D
:101640008601750104C0C701D8017C018D01A096F7
:101650006CAD7DAD8EAD9FADA097A80197010E94A6
:101660004D1CCD54DF4F688379838A839B83C35B92
:10167000D040C201B101A80197010E944D1CC15583
:10168000DF4F688379838A839B83CF5AD040C4011C
:10169000B301A80197010E944D1CC555DF4F688317
:1016A00079838A839B83CB5AD040C601B501A801B8
:1016B00097010E944D1CC955DF4F688379838A8347
:1016C0009B83C75AD040FE01B9962396FFAFEEAF79
:1016D000239780E090E0A0E0B0E0C556DF4F88831C
:1016E0009983AA83BB83CB59D040C956DF4F8883E7
:1016F0009983AA83BB83C759D040CD56DF4F8883D7
:101700009983AA83BB83C359D04091E02A969FAFA7
:101710002A97CD51DF4F1882C35ED040CC51DF4FA6
:101720001882C45ED040CB51DF4F1882C55ED040D6
:10173000CA51DF4F1882C65ED0406C961FAE1EAEF7
:101740006C9740C26A96AEADBFAD6A976C96EEAD2F
:10175000FFAD6C97AE17BF0709F401C229962EADF5
:101760003FAD29972150304C220F331F220F331FDA
:1017700089E290E08C0F9D1F820F931F66969FAFAA
:101780008EAF66972996AEADBFAD29976496BFAF71
:10179000AEAF6497FE01B9966296FFAFEEAF629767
:1017A00068961FAE1EAE68976A962EAD3FAD6A97DB
:1017B0002F5F3F4FC552DF4F39832883CB5DD04029
:1017C00068968EAD9FAD68976C96AEADBFAD6C97C9
:1017D0008A179B0709F49BC16A96EEADFFAD6A9725
:1017E0008E179F0709F493C1CD54DF4F688179812B
:1017F0008A819B81C35BD0402396AEADBFAD23975A
:101800002D913D914D915C910E947F1B7B018C013C
:10181000C155DF4F688179818A819B81CF5AD04041
:101820002196EEADFFAD2197208131814281538118
:101830000E947F1B5B016C01C555DF4F6881798178
:101840008A819B81CB5AD0406296AEADBFAD629784
:101850002D913D914D915C910E947F1B3B014C016C
:10186000C955DF4F688179818A819B81C75AD040F1
:101870006696EEADFFAD669720813181428153813E
:101880000E947F1B1B012C01C801B701A801970111
:101890000E94FD1D7B018C01C601B501A6019501C9
:1018A0000E94FD1D9B01AC01C801B7010E94801B75
:1018B0007B018C01C401B301A40193010E94FD1DB1
:1018C0009B01AC01C801B7010E94801B7B018C0108
:1018D000C201B101A20191010E94FD1D9B01AC0159
:1018E000C801B7010E94801B2B013C012A96FFAD65
:1018F0002A97FF23C9F4CD51DF4F2881C35ED04022
:10190000CC51DF4F3881C45ED040CB51DF4F48818E
:10191000C55ED040CA51DF4F5881C65ED0400E949C
:10192000461C88230CF0F3C0C352DF4F2881398155
:10193000CD5DD0403A832983C552DF4F888199819C
:10194000CB5DD0409C838B836896AEADBFAD68976E
:101950001196BE83AD8311976896BFAFAEAF6897FF
:101960006496EEADFFAD6497F887EF83FE01319684
:10197000EE24FF2420E030E080819181019709F47A
:1019800079012F5F3F4F329624303105A9F7A09699
:101990006CAD7DAD8EAD9FADA0972DEA37E24BE3E8
:1019A00051E40E944D1C23E93EE644E350E40E94CA
:1019B000FD1D4B015C018701000F111F0E0D1F1D46
:1019C000F8013196EE0FFF1FCD52DF4F288139818C
:1019D000C35DD040E20FF31F60817181882777FDDE
:1019E0008095982F0E94E81CA4962CAD3DAD4EAD7D
:1019F0005FADA4970E947F1B6B017C01000F111F3C
:101A0000CD52DF4F88819981C35DD040080F191FE7
:101A1000D8016D917C91882777FD8095982F0E9441
:101A2000E81CA8962CAD3DAD4EAD5FADA8970E94C9
:101A30007F1B9B01AC01C701B6010E94F31B2CE484
:101A400033EC40E550E40E947F1B26EE39E745ED7C
:101A50005FE30E94801BCD56DF4F688379838A83C2
:101A60009B83C359D04026EE39E745ED5FE30E94E2
:101A70007F1B7B018C01C8010E944A1CA5019401B7
:101A80000E94FD1D9B01AC01A8966CAD7DAD8EAD95
:101A90009FADA8970E94801BC556DF4F688379834E
:101AA0008A839B83CB59D040B701C8010E94601E36
:101AB000A50194010E94FD1D9B01AC01A4966CAD93
:101AC0007DAD8EAD9FADA4970E94801BC956DF4FA0
:101AD000688379838A839B83C759D040D301C2012D
:101AE000CD51DF4F4882C35ED040CC51DF4F988349
:101AF000C45ED040CB51DF4FA883C55ED040CA51F1
:101B0000DF4FB883C65ED0402A961FAE2A976896EC
:101B1000EEADFFAD689731966896FFAFEEAF689770
:101B200064962EAD3FAD64972150304064963FAF30
:101B30002EAF649762968EAD9FAD629704966296C3
:101B40009FAF8EAF62976696AEADBFAD66971497A6
:101B50006696BFAFAEAF6697349709F031CE6A96FE
:101B6000EEADFFAD6A9731966A96FFAFEEAF6A971A
:101B700029962EAD3FAD29972150304029963FAF91
:101B80002EAF299721968EAD9FAD21970496219671
:101B90009FAF8EAF2197349709F0D4CD6C96AEAD40
:101BA000BFAD6C9711966C96BFAFAEAF6C97239696
:101BB000EEADFFAD239734962396FFAFEEAF23979C
:101BC0001497F1F02BE030E06C968EAD9FAD6C97E2
:101BD000281B390B29963FAF2EAF2997DE01999626
:101BE0002196BFAFAEAF21976A961FAE1EAE6A9721
:101BF0000196C352DF4F99838883CD5DD040A2CD3B
:101C000089819A812B813C81820F931F2D813E8196
:101C1000820F931F2F813885820F931F9E012F5FA4
:101C20003F4F099789F4F90140E050E020E030E0AF
:101C300080819181039709F4A9012F5F3F4F32966C
:101C400024303105A9F710C0F90140E050E020E050
:101C500030E080819181019709F4A9012F5F3F4F06
:101C6000329624303105A9F78A01000F111F040FA5
:101C7000151FF801EE0FFF1FCD52DF4F288139816C
:101C8000C35DD040E20FF31F6081718180E090E07E
:101C90000E94E61C9B01AC01C556DF4F688179812B
:101CA0008A819B81CB59D0400E947F1B5B016C01D4
:101CB0000F5F1F4F000F111FCD52DF4F8881998199
:101CC000C35DD040080F191FD8016D917C9180E051
:101CD00090E00E94E61C9B01AC01C956DF4F688171
:101CE00079818A819B81C759D0400E947F1B7B01EB
:101CF0008C01C601B501A60195010E94FD1D5B0185
:101D00006C01C801B701A80197010E94FD1D9B014C
:101D1000AC01C601B5010E94801B0E946A1E9B0196
:101D2000AC0160E070E088E691E40E944D1C1B016C
:101D30002C0160915F0170916001882777FD80958B
:101D4000982F0E94E81CC556DF4F288139814A81AF
:101D50005B81CB59D0400E947F1B3B014C016091BD
:101D6000700170917101882777FD8095982F0E94EE
:101D7000E81CC956DF4F288139814A815B81C759E8
:101D8000D0400E947F1B7B018C01C401B301A401E0
:101D900093010E94FD1D5B016C01C801B701A80100
:101DA00097010E94FD1D9B01AC01C601B5010E9477
:101DB000801B0E946A1E5B016C01C801B701A4016F
:101DC00093010E94F31B7B018C01C601B501A201A6
:101DD00091010E94FD1D3B014C016BED7FE089E408
:101DE00090E4A80197010E947F1BCD56DF4F288108
:101DF00039814A815B81C359D0400E94801B7B019D
:101E00008C01C8010E944A1C5B016C01B701C8012A
:101E10000E94601E7B018C01C401B301A6019501E3
:101E20000E94FD1DCB52DF4FE881F981C55DD04096
:101E30006083718382839383C401B301A8019701F6
:101E40000E94FD1DC952DF4FA881B981C75DD040F6
:101E50006D937D938D939C931397CD56DF4F88811F
:101E60009981AA81BB81C359D040C752DF4FE88115
:101E7000F981C95DD04080839183A283B383C0512F
:101E8000DF4F0FB6F894DEBF0FBECDBFCF91DF910D
:101E90001F910F91FF90EF90DF90CF90BF90AF9088
:101EA0009F908F907F906F905F904F903F902F907A
:101EB000089540E050E060E971E00AC020E137E2B7
:101EC000FB013197F1F721503040D1F74F5F5F4F61
:101ED000481759079CF3089597FF06C02227332718
:101EE000281B390B469802C0469A9C018FE892E065
:101EF000AC01249FC001259F900D349F900D1124AB
:101F00009093890080938800089597FF06C0222748
:101F10003327281B390B479802C0479A9C018FE84A
:101F200092E0AC01249FC001259F900D349F900D3D
:101F3000112490938B0080938A000895E1E6F0E0ED
:101F400080E88083108285BF85BF81E090E066E2F3
:101F500070E04CE050E00E944C100E94BC1AE1E896
:101F6000F0E080818B7F808380818D7F8083808182
:101F7000816080838FEF9FEF90938700809386002E
:101F8000808180618083808188608083E0E8F0E0E8
:101F900080818260808380818E7F8083259A80818A
:101FA0008068808380818F7B8083269A8081806295
:101FB000808380818F7E80838081877F8083808102
:101FC0008B7F8083109289001092880010928B0082
:101FD00010928A003E9A3F9A4698479808959C012D
:101FE000862FB901409174010E9464140895CF9323
:101FF000DF93EC018091720190917301849731F02D
:1020000084E2BE01409174010E94641480917201C7
:1020100090917301859731F085E2BE014091740182
:102020000E9464148091720190917301869731F03F
:1020300086E2BE01409174010E946414DF91CF9149
:1020400008951F920F920FB60F9211242F933F9372
:102050004F935F936F937F938F939F93AF93BF93B0
:10206000EF93FF9384E691E0609174010E94151450
:1020700081E080936301FF91EF91BF91AF919F91B8
:102080008F917F916F915F914F913F912F910F9021
:102090000FBE0F901F901895CF92DF92EF92FF9294
:1020A0000F931F93C82E192FD62E072F7A010E9447
:1020B0000414C092760110937701D09272010093BC
:1020C0007301E0927401F09275018C2D6D2D4E2DEF
:1020D0000E94B1141F910F91FF90EF90DF90CF906D
:1020E00008957F928F929F92AF92BF92CF92DF928C
:1020F000EF92FF920F931F93DF93CF93CDB7DEB78D
:10210000A4970FB6F894DEBF0FBECDBF0E94011595
:10211000559A0E94BC1A882321F06A9A72985D9A97
:1021200001C06E9A769802C06A9A72980E941A1537
:102130008823D1F3DE011D96E0E2F1E088E1019011
:102140000D928150E1F78E01035F1F4F35E0832E22
:10215000912C8C0E9D1E29E0A22EB12CAC0EBD1E22
:102160006E010894C11CD11C90E9E92E91E0F92E72
:1021700080E4782E0E941A158823E1F3C8010E949A
:102180002F1A8823B9F380E092E060E871E00E94A2
:102190004701C801B601A40195010E940A026981A4
:1021A0007A818B819C8120E030E048EC52E40E94EF
:1021B000FD1D0E94B51CDC01CB010E94AF196D8191
:1021C0007E818F81988520E030E048EC52E40E94C7
:1021D000FD1D0E94B51CDC01CB010E94AF19698571
:1021E0007A858B859C8520E030E048EC52E40E94A3
:1021F000FD1D0E94B51CDC01CB010E94AF198D852D
:102200009E850E94AF198F8598890E94AF198B898E
:102210009C890E94AF198D899E890E94AF19898D72
:102220009A8D0E94AF198B8D9C8D0E94AF198F8D56
:1022300098A10E94AF1989A19AA10E94AF1980E1CB
:1022400097E2F7013197F1F70197D9F76E9A8EB1BE
:1022500087258EB98FCF80E090E00E946C0F80E0E0
:1022600090E00E94850F08950F931F93CF93DF9303
:1022700002E010E0C1E0D0E080917A008F77809397
:102280007A0080917B008F7D80937B0080917C0021
:10229000846080937C0080917C008D7F80937C00A3
:1022A00080917C008E7F80937C0080917A00806892
:1022B00080937A0080917A00806480937A00809184
:1022C0007A0084FFFCCF8091780090917900909300
:1022D0009F0180939E0180917A00806180937A00B3
:1022E00080917A008F7780937A0080917B008F7D38
:1022F00080937B0080917C00846080937C0080913F
:102300007C00826080937C0080917C008E7F809333
:102310007C0080917A00806880937A0080917A00B6
:10232000806480937A0080917A0084FFFCCF809152
:1023300078009091790090939D0180939C01809109
:102340007A00806180937A0080917A008F77809301
:102350007A0080917B00806280937B0080917C007A
:102360008B7F80937C0080917C008D7F80937C00AC
:1023700080917C00816080937C0080917A008068ED
:1023800080937A0080917A00806480937A008091B3
:102390007A0084FFFCCF809178009091790090932F
:1023A000A1018093A00180917A00806180937A00DE
:1023B00080917A008F7780937A0080917B00806291
:1023C00080937B0080917C008B7F80937C00809148
:1023D0007C008D7F80937C0080917C008E7F809339
:1023E0007C0080917A00806880937A0080917A00E6
:1023F000806480937A0080917A0084FFFCCF6091A2
:102400007800709179007093A3016093A20180918C
:102410007A00806180937A0010924201109241010B
:10242000E0919C01F0919D0182E0ED3BF80774F092
:102430008091A0019091A1018E179F073CF46E1727
:102440007F0724F4109342010093410140919E01C3
:1024500050919F0183E041325807DCF08091A00148
:102460009091A1019A01281B390BC9018C599F4FEA
:10247000893C910508F4F9C0641775070CF0F5C0A4
:102480001093420100934101F0C01092420110925A
:1024900041012091A0013091A10183E02132380750
:1024A0007CF0CA01821B930B8C599F4F893C91058C
:1024B00038F04217530724F4D0934201C0934101EE
:1024C00083E06132780754F0E617F7073CF44617CB
:1024D000570724F4D0934201C093410180914101F8
:1024E000909142018130910531F08230910571F077
:1024F000892BC9F024C08AE590E00E946C0F82E32A
:1025000090E00E94850F6E9A769817C086EA9FEF3A
:102510000E946C0F8EEC9FEF0E94850F6E9A76984A
:102520006A9A729A0CC080E090E00E946C0F80E082
:1025300090E00E94850F6E9A769A6A9A729883E468
:1025400091E068E771E044E951E02CE831E00E9455
:102550000A020E941A15882309F478C08DE891E0D8
:102560000E94DB18609178017091790180917A0165
:1025700090917B010E94B51C882777FD8095982F4C
:102580000E94E81C209188013091890140918A01C4
:1025900050918B010E947F1B0E94B51CDC01CB0176
:1025A0000E94AF198BE891E00E94DB1886E891E069
:1025B0000E94DB18609194017091950180919601C1
:1025C000909197010E94B51C882777FD8095982FE0
:1025D0000E94E81C209198013091990140919A0144
:1025E00050919B010E947F1B0E94B51CDC01CB0116
:1025F0000E94AF1984E891E00E94DB188BE791E01C
:102600000E94DB1860918C0170918D0180918E0188
:1026100090918F010E94B51C882777FD8095982F97
:102620000E94E81C2091900130919101409192010B
:10263000509193010E947F1B0E94B51CDC01CB01CD
:102640000E94AF1989E791E00E94DB1810926301A4
:1026500080916401813A09F40FCE843A19F40E9402
:102660002B110AC00E94411307C02D593F4F273C30
:10267000310508F40ACF0DCFDF91CF911F910F9153
:10268000089520E931E06E9A76988091630188235D
:10269000E1F36E9A769A10926301809164018091C1
:1026A0006401803A19F0813A71F726C06A9A7298EB
:1026B0006E9A769880E197E2F9013197F1F70197E8
:1026C000D9F76A9A729A6E9A769A80E197E2F9013E
:1026D0003197F1F70197D9F76A9A72986E9A7698BE
:1026E00080E197E2F9013197F1F70197D9F76A9AFA
:1026F000729A6E9A769AC7CF0E943411089582EE2C
:102700009FEF0E946C0F82EE9FEF0E94850F8091D9
:1027100063018823E1F31092630180916401813A9F
:1027200029F0843A31F40E942B1108950E9434114B
:1027300008950E94411308956E9A76986A9A729845
:1027400080E090E00E94590F6A9A729A6E9A769A87
:1027500080E090E00E94590F6E9A76986A9A72987B
:1027600080E090E00E94590F6E9A769A80E090E0A7
:102770000E94590F80E092E060E871E00E944701FA
:1027800083E491E068E871E048E951E020E931E054
:102790000E940A02ECE7F0E080818F7780838081DD
:1027A0008064808380E885BF85BFAAE7B0E08C9114
:1027B00084608C938C9182608C938C9181608C93DB
:1027C000EEE7F0E080818061808380818064808397
:1027D000EDE7F0E08081816080838081826080838A
:1027E0008C9180628C93859A8D9A879A8F9A239A7E
:1027F0002B9A539A5B9A809A889A819A899A0E9416
:102800009E0F0E9441130895589A599A5A9A8CE043
:102810008093B800E9E6F0E0808180628083808167
:102820008F7E8083EA9A789408959C0184EA80934D
:10283000BC008091BC0087FFFCCF81E58093BB008A
:1028400084E88093BC008091BC0087FFFCCF80911E
:10285000B900887F883491F084EC8093BC0080912B
:10286000BC0087FFFCCF8091BB00861739F4A0E045
:10287000B0E070E06150704094EC12C084E9809345
:10288000BC0080E008959093BC008091BC0087FF5D
:10289000FCCF8091BB00F901EA0FFB1F80831196EA
:1028A000A617B70784F384E88093BC008091BC002E
:1028B00087FFFCCF8091BB00A20FB31F8C9384E9EC
:1028C0008093BC0081E00895982FF89484EA809367
:1028D000BC008091BC0087FFFCCF80E58093BB00EB
:1028E00084E88093BC008091BC0087FFFCCF80917E
:1028F000B900887F803231F484E98093BC007894F9
:1029000080E0089583E08093BB0084E88093BC005E
:102910008091BC0087FFFCCF9093BB0084E880933C
:10292000BC008091BC0087FFFCCF20E030E050E08D
:1029300094E80EC0FB01E20FF31F80818093BB007F
:102940009093BC008091BC0087FFFCCF2F5F3F4F6E
:10295000241735077CF384E98093BC00789481E0E8
:102960000895FF920F931F93182F062FF42E0E94A5
:10297000041484EA8093BC008091BC0087FFFCCFE4
:1029800080E58093BB0084E88093BC008091BC000C
:1029900087FFFCCF8091B900887F803229F484E9D9
:1029A0008093BC0080E029C081E08093BB0084E874
:1029B0008093BC008091BC0087FFFCCF1093BB00CC
:1029C00084E88093BC008091BC0087FFFCCF00931B
:1029D000BB0084E88093BC008091BC0087FFFCCFE3
:1029E000F092BB0084E88093BC008091BC0087FF1C
:1029F000FCCF84E98093BC0081E01F910F91FF9090
:102A0000089581E08093D70080EA8093D80082E126
:102A100089BD09B400FEFDCF80E98093D8001092F3
:102A2000E00010925B0110925C018CE08093E20068
:102A30007894089580915B0108952FB7F894809160
:102A40005B01882339F083E08093E9008091E800FE
:102A500085FD03C02FBF9FEF0AC09091F1008091C8
:102A6000E80085FD03C08BE68093E8002FBF892F27
:102A700008959FB7F89480915B01882329F083E043
:102A80008093E9008091F2009FBF089580915B01DF
:102A9000882371F09FB7F89483E08093E9002BE6D8
:102AA00002C02093E8008091E80085FDFACF9FBF27
:102AB0000895482F80915B018823D9F12FB7F894AE
:102AC00084E08093E90080915E01882341F0809149
:102AD000E80085FD02C02FBF12C010925E019091E8
:102AE000E400975E34E08091E80085FD13C02FBFBD
:102AF0008091E400891729F481E080935E018FEFD3
:102B0000089580915B018823A1F02FB7F89430934A
:102B1000E900E9CF4093F1008091E80085FD03C012
:102B20008AE38093E80085E080935D012FBF80E019
:102B300008958FEF0895282F80915B01882351F02D
:102B40009FB7F89484E08093E9008091E80085FDC8
:102B500003C09FBF8FEF08952093F1008091E8009C
:102B600085FD03C08AE38093E80085E080935D01E2
:102B70009FBF80E00895CF93DF93EC0180915B01CC
:102B8000882309F41CC13FB7F89484E08093E900DE
:102B900080915E01882309F407C18091E80085FDDA
:102BA00002C03FBF0CC110925E01FEC09091E400D4
:102BB000975E8091E80085FD13C03FBF8091E400DF
:102BC000891721F481E080935E01F9C080915B0157
:102BD000882309F4F4C03FB7F8945093E900E9CF93
:102BE0008091F2002A2F281B822F90E06817790726
:102BF00008F4262F822F90E08134910508F0C6C09A
:102C00008A5A9F4FFC01EE0FFF1F0590F491E02DB3
:102C1000099489918093F10089918093F1008991C1
:102C20008093F10089918093F10089918093F10064
:102C300089918093F10089918093F100899180932B
:102C4000F10089918093F10089918093F10089913D
:102C50008093F10089918093F10089918093F10034
:102C600089918093F10089918093F10089918093FB
:102C7000F10089918093F10089918093F10089910D
:102C80008093F10089918093F10089918093F10004
:102C900089918093F10089918093F10089918093CB
:102CA000F10089918093F10089918093F1008991DD
:102CB0008093F10089918093F10089918093F100D4
:102CC00089918093F10089918093F100899180939B
:102CD000F10089918093F10089918093F1008991AD
:102CE0008093F10089918093F10089918093F100A4
:102CF00089918093F10089918093F100899180936B
:102D0000F10089918093F10089918093F10089917C
:102D10008093F10089918093F10089918093F10073
:102D200089918093F10089918093F100899180933A
:102D3000F10089918093F10089918093F10089914C
:102D40008093F10089918093F10089918093F10043
:102D500089918093F10089918093F100899180930A
:102D6000F10089918093F10089918093F10089911C
:102D70008093F10089918093F10089918093F10013
:102D800089918093F10089918093F10089918093DA
:102D9000F1008091E80085FD02C0B093E800621B5D
:102DA000710940935D0104C054E0A0E4BAE345E03A
:102DB0006115710509F0FACE3FBF80E001C08FEFC9
:102DC000DF91CF9108959FB7F89480915D0188239A
:102DD00041F084E08093E9008AE38093E800109258
:102DE0005D019FBF08956091380170913901809114
:102DF0003A0190913B01089580913C0108958091A2
:102E00003D01089580913E01089580915C010895EF
:102E1000382F9FB7F89480915B01882339F022E026
:102E20002093E9008091E80085FD03C09FBF8FEFEC
:102E3000089581EA8093F10080E28093F10010927E
:102E4000F1001092F1001092F1001092F100209325
:102E5000F1001092F1003093F1001092F1008AE33A
:102E60008093E8009FBF80E008951F920F920FB6F5
:102E70000F9211248F939F938091E1001092E100B3
:102E8000982F83FF11C01092E90081E08093EB003E
:102E90001092EC0082E18093ED0088E08093F000D6
:102EA00010925B0110925C0192FF13C080915B0154
:102EB000882379F080915D01882359F081508093B7
:102EC0005D01882331F484E08093E9008AE38093F4
:102ED000E8009F918F910F900FBE0F901F90189553
:102EE0001F920F920FB60F9211240F931F932F93DF
:102EF0003F934F935F936F937F938F939F93AF9382
:102F0000BF93EF93FF931092E9008091E80083FF55
:102F10003CC14091F1003091F1008091F100682FA7
:102F200070E02091F100922F80E0682B792B809146
:102F3000F100A82FB0E02091F100922F80E0A82BA3
:102F4000B92B1091F1000091F10082EF8093E8001D
:102F5000363009F05AC029E931E0A9014550504006
:102F6000F9013797859194918617970701F5FA0132
:102F7000859194918A179B07D1F49A012E5F3F4F58
:102F8000F901659174912E5F3F4FF9014491212F12
:102F900030E0902F80E0282B392B2F3F310519F09E
:102FA00010F02FEF30E0241758F4422F09C0295FAA
:102FB0003F4F495F5F4FF1E0233C3F0789F6E5C093
:102FC0005EEF8091E800282F30E0C9018570907095
:102FD000892BB9F322FDDCC0342F413108F030E1F8
:102FE000232FCB0106C0FC010196E491E093F10090
:102FF00021502223C1F7630F711D431B5093E8003A
:103000004423F9F63031E9F2C3C0353061F48EEF74
:103010008093E8008091E80080FFFCCF862F8068D5
:103020008093E300B5C0393051F5442309F0ADC0B9
:1030300060935B0110925C0110925D018EEF8093B2
:10304000E8008CEB91E021E02093E900FC0101967F
:10305000E491E093EB00EE2369F0AC014F5F5F4F2A
:10306000FC0184918093EC00CA010196FA0134912D
:103070003093ED002F5F253039F78EE181C0383075
:1030800061F4403809F081C08091E80080FFFCCFF6
:1030900080915B018093F10050C0313289F4413A54
:1030A00009F073C08091E80080FFFCCFE8E3F1E015
:1030B00081918093F10081E0EF33F807C9F73DC0BB
:1030C0003032A1F4413209F060C08091E80082FF03
:1030D000FCCFE8E3F1E08091F100819381E0EF33F0
:1030E000F807C9F78BEF8093E80027C0323251F41C
:1030F000413209F04AC060935C018091E80080FF92
:10310000FCCF1BC03323E9F48091E80080FFFCCFA3
:10311000423811F080E00DC0A093E9008091EB00EF
:1031200090E025E0969587952A95E1F781701092B9
:10313000E9008093F1001092F1008EEF8093E80097
:1031400027C0313011F0333001F54230F1F4672BF4
:10315000E1F42A2F2F77822F81508430B0F48EEF44
:103160008093E8002093E900333079F089E180937F
:10317000EB0081E090E002C0880F991F2A95E2F7EA
:103180008093EA001092EA0003C081E28093EB0092
:10319000FF91EF91BF91AF919F918F917F916F912F
:1031A0005F914F913F912F911F910F910F900FBE03
:1031B0000F901F9018951F93CF93DF93EC01FE01A2
:1031C00021961491112349F01A3019F48DE00E94D0
:1031D0005915812F0E945915F2CFDF91CF911F9180
:1031E0000895982F8A3010F087E301C080E3890F9B
:1031F0000E94591508951F93182F82958F700E9471
:10320000F118812F8F700E94F1181F9108951F935C
:10321000182F892F0E94FB18812F0E94FB181F91E5
:1032200008950E94FB180895EF92FF920F931F9349
:10323000DF93CF93CDB7DEB72A970FB6F894DEBFF2
:103240000FBECDBF8E010F5F1F4F2AE0F801119214
:103250002A95E9F7A8012AE030E00E94261F3BE00A
:10326000E32EF12CEC0EFD1EF80181918F010E94DE
:1032700059150E151F05C1F72A960FB6F894DEBF33
:103280000FBECDBFCF91DF911F910F91FF90EF90B7
:103290000895EF92FF920F931F93DF93CF93CDB7D3
:1032A000DEB72B970FB6F894DEBF0FBECDBF8E01F1
:1032B0000F5F1F4F2BE0F80111922A95E9F7A80143
:1032C0002AE030E00E94F21E4CE0E42EF12CEC0EDD
:1032D000FD1EF80181918F010E9459150E151F05E1
:1032E000C1F72B960FB6F894DEBF0FBECDBFCF91BE
:1032F000DF911F910F91FF90EF900895EF92FF9251
:103300000F931F93DF93CF9300D000D00F92CDB7D0
:10331000DEB78E010F5F1F4F25E0F80111922A954D
:10332000E9F7B8014AE050E00E944B1F56E0E52E55
:10333000F12CEC0EFD1EF80181918F010E945915B0
:103340000E151F05C1F70F900F900F900F900F9063
:10335000CF91DF911F910F91FF90EF900895EF9221
:10336000FF920F931F93DF93CF9300D000D000D034
:10337000CDB7DEB78E010F5F1F4F26E0F801119227
:103380002A95E9F7B8014AE050E00E94D11E67E0B3
:10339000E62EF12CEC0EFD1EF80181918F010E94AA
:1033A00059150E151F05C1F726960FB6F894DEBF06
:1033B0000FBECDBFCF91DF911F910F91FF90EF9086
:1033C000089520E030E08091BC0087FD06C02F5FAB
:1033D0003F4F83E0293E3807B1F780E0285E334055
:1033E00009F081E008958093BB0084E88093BC00DD
:1033F0000E94E119882319F08091B900887F08950F
:103400001F93182F84EA8093BC000E94E11988233F
:1034100069F0110F812F8F5F0E94F319883411F02A
:1034200081E004C084E98093BC0080E01F9108958E
:103430001F93182F84EA8093BC000E94E11988230F
:1034400061F0812F880F0E94F319803211F081E022
:1034500004C084E98093BC0080E01F9108950F931D
:103460001F93DF93CF93CDB7DEB760970FB6F89475
:10347000DEBF0FBECDBF182F092F88E50E94181A96
:10348000882309F469C086E30E94F319882309F4AC
:1034900063C084E98093BC0085E88A95F1F788E5EC
:1034A0000E94001A882309F457C0FE01319680E17A
:1034B000DF011D928A95E9F794EC9E01205F3F4F52
:1034C0009093BC008091BC0087FFFCCF8091BB0033
:1034D0008193E217F307A1F784E88093BC00809101
:1034E000BC0087FFFCCF8091BB00888B84E9809370
:1034F000BC00DE011296212F302FC901FC01BE0154
:10350000625F7F4F12962C91129730E0C901807351
:10351000907054E0880F991F5A95E1F74C91840FF1
:10352000911D91838083C901807C9070880F991FC1
:10353000880F991F11964C911197840F911D9383B9
:1035400082832F7030703583248313963696A617A6
:10355000B707C1F681E001C080E060960FB6F8942D
:10356000DEBF0FBECDBFCF91DF911F910F910895A8
:1035700084E98093BC0008951F93CF93DF930E944A
:10358000041488E50E94181A882309F4B3C080E364
:103590000E94F319882309F4ADC081E00E94F31959
:1035A000882309F4A7C084E98093BC0080E49CE9E7
:1035B0000197F1F788E50E94181A882309F49AC048
:1035C00080E00E94F319882309F494C080E00E94EF
:1035D000F319882309F48EC080E00E94F319882330
:1035E00009F488C080E00E94F319882309F482C09E
:1035F00080E00E94F319882309F47CC080E00E94D7
:10360000F319882309F476C080E00E94F319882317
:1036100009F470C080E90E94F319882309F46AC094
:1036200014E91093BC00C0E4DCE9CE010197F1F786
:1036300088E50E94181A882309F45CC087E00E947C
:10364000F319882309F456C080E00E94F3198823F7
:1036500009F450C081E40E94F319882309F44AC098
:103660001093BC00CE010197F1F788E50E94181A6B
:10367000882309F43FC08AE10E94F319882309F4E2
:1036800039C080E40E94F3198823A1F180E00E94F0
:10369000F319882379F11093BC00CE010197F1F75B
:1036A00088E50E94181A882329F183E30E94F31900
:1036B000882301F183E00E94F3198823D9F0109345
:1036C000BC00CE010197F1F788E50E94181A882303
:1036D00089F080E30E94F319882361F088E00E945A
:1036E000F319882339F01093BC00CE010197F1F74C
:1036F00081E001C080E0DF91CF911F910895505883
:10370000BB27AA270ED027C2F0D130F0F5D120F088
:1037100031F49F3F11F41EF4C0C10EF4E095E7FBB5
:10372000B6C1E92F3AD280F3BA176207730784074C
:10373000950718F071F49EF552C20EF4E0950B2E29
:10374000BA2FA02D0B01B90190010C01CA01A001F3
:103750001124FF27591B99F0593F50F4503E68F14E
:103760001A16F040A22F232F342F4427585FF3CF8F
:10377000469537952795A795F0405395C9F77EF460
:103780001F16BA0B620B730B840BBAF09150A1F0A9
:10379000FF0FBB1F661F771F881FC2F70EC0BA0F2F
:1037A000621F731F841F48F4879577956795B795B7
:1037B000F7959E3F08F0B3CF9395880F08F09927AF
:1037C000EE0F97958795089590D158F080E891E095
:1037D00009F49EEF91D128F040E851E059F45EEFF2
:1037E00009C05BC1FCC1E92FE078D7D168F3092E8D
:1037F000052AC1F3261737074807590738F00E2E58
:1038000007F8E02569F0E025E0640AC0EF6307F8F7
:10381000009407FADB01B9019D01DC01CA01AD0189
:10382000EF934AD098D10AD05F91552331F02BED18
:103830003FE049E450FD49EC63CF0895DF93DD2775
:10384000B92FBF7740E85FE31616170648075B07F6
:1038500010F4D92FCBD19F938F937F936F9378D20E
:10386000EEE2F1E01DD177D12F913F914F915F9121
:10387000D0D1DD2349F09058A2EA2AED3FE049EC8F
:103880005FE3D0785D274DDFDF9165C1DCD008F4C0
:1038900081E0089539D1E3956FC10CD05CC12CD182
:1038A00040F023D130F021F45F3F19F0F0C0511106
:1038B00097C1F3C072D198F39923C9F35523B1F39B
:1038C000951B550BBB27AA2762177307840738F08F
:1038D0009F5F5F4F220F331F441FAA1FA9F333D0EE
:1038E0000E2E3AF0E0E830D091505040E695001CA2
:1038F000CAF729D0FE2F27D0660F771F881FBB1F5E
:10390000261737074807AB07B0E809F0BB0B802D37
:10391000BF01FF2793585F4F2AF09E3F510568F083
:10392000B6C05EC15F3FECF3983EDCF386957795B9
:103930006795B795F7959F5FC9F7880F911D969585
:10394000879597F90895E1E0660F771F881FBB1FE1
:10395000621773078407BA0720F0621B730B840B8E
:10396000BA0BEE1F88F7E095089504D06894B11162
:1039700037C108951AD188F09F5790F0B92F992731
:10398000B751A0F0D1F0660F771F881F991F1AF06A
:10399000BA95C9F712C0B13081F021D1B1E00895D4
:1039A0001EC1672F782F8827B85F39F0B93FCCF355
:1039B000869577956795B395D9F73EF49095809560
:1039C000709561957F4F8F4F9F4F0895E89409C080
:1039D00097FB3EF490958095709561957F4F8F4F42
:1039E0009F4F9923A9F0F92F96E9BB279395F69558
:1039F000879577956795B795F111F8CFFAF4BB0FD6
:103A000011F460FF1BC06F5F7F4F8F4F9F4F16C039
:103A1000882311F096E911C0772321F09EE8872FC3
:103A2000762F05C0662371F096E8862F70E060E07F
:103A30002AF09A95660F771F881FDAF7880F9695F8
:103A4000879597F90895990F0008550FAA0BE0E89C
:103A5000FEEF16161706E807F907C0F01216130650
:103A6000E407F50798F0621B730B840B950B39F490
:103A70000A2661F0232B242B252B21F408950A26F6
:103A800009F4A140A6958FEF811D811D089597F936
:103A90009F6780E870E060E008959FEF80EC0895F4
:103AA000DF93CF931F930F93FF92EF92DF927B01EF
:103AB0008C01689405C0DA2EEF01ABD0FE01E894CA
:103AC000A5912591359145915591AEF3EF0129DEF0
:103AD000FE019701A801DA9479F7DF90EF90FF904B
:103AE0000F911F91CF91DF91089500240A9416162B
:103AF000170618060906089500240A9412161306DC
:103B0000140605060895C9CF50D0E8F3E894E0E024
:103B1000BB279F57F0F02AED3FE049EC06C0EE0FBF
:103B2000BB0F661F771F881F28F0B23A6207730722
:103B3000840728F0B25A620B730B840BE3959A95B5
:103B400072F7803830F49A95BB0F661F771F881F75
:103B5000D2F7904802C1092E0394000C11F4882377
:103B600052F0BB0F40F4BF2B11F460FF04C06F5F35
:103B70007F4F8F4F9F4F0895EF93E0FF06C0A2EA5B
:103B80002AED3FE049EC5FEBCCDDE5DF0F900394DD
:103B900001FC9058EBE5F1E0F3C057FD9058440F5D
:103BA000551F59F05F3F71F04795880F97FB991F9C
:103BB00061F09F3F79F08795089512161306140659
:103BC000551FF2CF4695F1DF08C0161617061806E6
:103BD000991FF1CF86957105610508940895E894C1
:103BE000BB2766277727CB0197F908959B01AC0186
:103BF00060E070E080E89FE350CE0BD0ACCF75DF83
:103C000028F07ADF18F0952309F041CF46CF112430
:103C1000E7CFC3DFA0F3959FD1F3950F50E0551F79
:103C2000629FF001729FBB27F00DB11D639FAA2711
:103C3000F00DB11DAA1F649F6627B00DA11D661F60
:103C4000829F2227B00DA11D621F739FB00DA11D81
:103C5000621F839FA00D611D221F749F3327A00D3B
:103C6000611D231F849F600D211D822F762F6A2FD7
:103C700011249F5750408AF0E1F088234AF0EE0F5C
:103C8000FF1FBB1F661F771F881F91505040A9F769
:103C90009E3F510570F0FBCEA3CF5F3FECF3983E03
:103CA000DCF3869577956795B795F795E7959F5FD0
:103CB000C1F7FE2B880F911D9695879597F908956A
:103CC0009F9322DF0F9007FCEE5F56CF11F40EF4A6
:103CD000E4CE41C06ADFD0F39923D9F3CEF39F57E6
:103CE000550B87FF46D00024A0E640EA900180589B
:103CF0005695979528F4805C660F771F881F20F0F3
:103D000026173707480730F4621B730B840B2029F2
:103D100031294A2BA69517940794202531254A2747
:103D200058F7660F771F881F20F0261737074807B8
:103D300030F4620B730B840B200D311D411DA095D7
:103D400081F7B901842F9158880F9695879508952A
:103D50009B01AC0152CF9F3F31F0915020F48795E9
:103D600077956795B795880F911D9695879597F9E3
:103D7000089591505040660F771F881FD2F708951D
:103D80009F938F937F936F93FF93EF939B01AC016E
:103D900034DFEF91FF9184DE2F913F914F915F913E
:103DA0002CCFFB019F01E8944230C4F04532B4F4BB
:103DB0004A3029F497FB1EF4909581959F4F642F0C
:103DC00077270E94711F805D8A330CF0895D819393
:103DD000CB010097A1F716F45DE251931082C9015F
:103DE0000C94611FFA01CF93FF93EF93223044F1BB
:103DF000253234F5C22FE894CA3049F497FB3EF4DB
:103E000090958095709561957F4F8F4F9F4F2C2F88
:103E1000332744275527FF93EF930E94851FEF9187
:103E2000FF91605D6A330CF0695D6193B901CA016D
:103E3000605070408040904051F716F4CDE2C1933D
:103E400010828F919F91CF910C94611FFA01CF93B3
:103E5000FF93EF932230CCF02532BCF4C22F2C2FED
:103E6000332744275527FF93EF930E94851FEF9137
:103E7000FF91605D6A330CF0695D6193B901CA011D
:103E8000605070408040904051F710828F919F9118
:103E9000CF910C94611FFB019F01423074F04532B9
:103EA00064F4642F77270E94711F805D8A330CF0C1
:103EB000895D8193CB010097A1F71082C9010C9411
:103EC000611FDC01FC01672F71917723E1F73297C5
:103ED00004C07C916D9370836291AE17BF07C8F3E5
:103EE0000895AA1BBB1B51E107C0AA1FBB1FA61741
:103EF000B70710F0A61BB70B881F991F5A95A9F793
:103F000080959095BC01CD010895A1E21A2EAA1BBF
:103F1000BB1BFD010DC0AA1FBB1FEE1FFF1FA21779
:103F2000B307E407F50720F0A21BB30BE40BF50B76
:103F3000661F771F881F991F1A9469F760957095FF
:103F4000809590959B01AC01BD01CF010895F89437
:023F5000FFCFA1
:103F52000000684179E91E40000068C123DB0B4183
:103F6200000000000C0229C100000000E17A3A4181
:103F72001D027D010000F701580100000C02300112
:103F8200000057025B01000000E100000000080091
:00000001FF
